{
  "contractName": "Artwork",
  "abi": [
    {
      "inputs": [
        {
          "internalType": "string",
          "name": "_artworkName",
          "type": "string"
        },
        {
          "internalType": "string",
          "name": "_artworkUrl",
          "type": "string"
        }
      ],
      "payable": false,
      "stateMutability": "nonpayable",
      "type": "constructor"
    },
    {
      "constant": true,
      "inputs": [],
      "name": "artworkHash",
      "outputs": [
        {
          "internalType": "bytes32",
          "name": "",
          "type": "bytes32"
        }
      ],
      "payable": false,
      "stateMutability": "view",
      "type": "function"
    },
    {
      "constant": true,
      "inputs": [],
      "name": "artworkName",
      "outputs": [
        {
          "internalType": "string",
          "name": "",
          "type": "string"
        }
      ],
      "payable": false,
      "stateMutability": "view",
      "type": "function"
    },
    {
      "constant": true,
      "inputs": [],
      "name": "artworkPrice",
      "outputs": [
        {
          "internalType": "uint256",
          "name": "",
          "type": "uint256"
        }
      ],
      "payable": false,
      "stateMutability": "view",
      "type": "function"
    },
    {
      "constant": true,
      "inputs": [],
      "name": "artworkUrl",
      "outputs": [
        {
          "internalType": "string",
          "name": "",
          "type": "string"
        }
      ],
      "payable": false,
      "stateMutability": "view",
      "type": "function"
    },
    {
      "constant": true,
      "inputs": [],
      "name": "isArtworkForSale",
      "outputs": [
        {
          "internalType": "bool",
          "name": "",
          "type": "bool"
        }
      ],
      "payable": false,
      "stateMutability": "view",
      "type": "function"
    },
    {
      "constant": true,
      "inputs": [],
      "name": "owner",
      "outputs": [
        {
          "internalType": "address",
          "name": "",
          "type": "address"
        }
      ],
      "payable": false,
      "stateMutability": "view",
      "type": "function"
    },
    {
      "constant": false,
      "inputs": [
        {
          "internalType": "address",
          "name": "newOwner",
          "type": "address"
        }
      ],
      "name": "transferOwnership",
      "outputs": [],
      "payable": false,
      "stateMutability": "nonpayable",
      "type": "function"
    },
    {
      "constant": false,
      "inputs": [
        {
          "internalType": "uint256",
          "name": "_artworkPrice",
          "type": "uint256"
        }
      ],
      "name": "sellArtwork",
      "outputs": [],
      "payable": false,
      "stateMutability": "nonpayable",
      "type": "function"
    },
    {
      "constant": false,
      "inputs": [],
      "name": "buyArtwork",
      "outputs": [],
      "payable": true,
      "stateMutability": "payable",
      "type": "function"
    }
  ],
  "bytecode": "0x608060405234801561001057600080fd5b5060405161085d38038061085d8339818101604052604081101561003357600080fd5b810190808051604051939291908464010000000082111561005357600080fd5b90830190602082018581111561006857600080fd5b825164010000000081118282018810171561008257600080fd5b82525081516020918201929091019080838360005b838110156100af578181015183820152602001610097565b50505050905090810190601f1680156100dc5780820380516001836020036101000a031916815260200191505b50604052602001805160405193929190846401000000008211156100ff57600080fd5b90830190602082018581111561011457600080fd5b825164010000000081118282018810171561012e57600080fd5b82525081516020918201929091019080838360005b8381101561015b578181015183820152602001610143565b50505050905090810190601f1680156101885780820380516001836020036101000a031916815260200191505b506040525050600080546001600160a01b031916331790555081516101b4906001906020850190610268565b5080516101c8906002906020840190610268565b50806040516020018080602001828103825283818151815260200191508051906020019080838360005b8381101561020a5781810151838201526020016101f2565b50505050905090810190601f1680156102375780820380516001836020036101000a031916815260200191505b5060408051601f19818403018152919052805160209091012060035550506005805460ff1916905550610303915050565b828054600181600116156101000203166002900490600052602060002090601f016020900481019282601f106102a957805160ff19168380011785556102d6565b828001600101855582156102d6579182015b828111156102d65782518255916020019190600101906102bb565b506102e29291506102e6565b5090565b61030091905b808211156102e257600081556001016102ec565b90565b61054b806103126000396000f3fe6080604052600436106100865760003560e01c806389b5efa71161005957806389b5efa71461016f5780638da5cb5b14610184578063de0563c4146101b5578063e265a223146101ca578063f2fde38b146101f457610086565b806325f7382a1461008b5780632ddcde1a146100b4578063869dcab5146100be5780638808b36a146100e5575b600080fd5b34801561009757600080fd5b506100a0610227565b604080519115158252519081900360200190f35b6100bc610230565b005b3480156100ca57600080fd5b506100d3610365565b60408051918252519081900360200190f35b3480156100f157600080fd5b506100fa61036b565b6040805160208082528351818301528351919283929083019185019080838360005b8381101561013457818101518382015260200161011c565b50505050905090810190601f1680156101615780820380516001836020036101000a031916815260200191505b509250505060405180910390f35b34801561017b57600080fd5b506100d36103f8565b34801561019057600080fd5b506101996103fe565b604080516001600160a01b039092168252519081900360200190f35b3480156101c157600080fd5b506100fa61040d565b3480156101d657600080fd5b506100bc600480360360208110156101ed57600080fd5b5035610465565b34801561020057600080fd5b506100bc6004803603602081101561021757600080fd5b50356001600160a01b031661048e565b60055460ff1681565b6000546001600160a01b031633141561027a5760405162461bcd60e51b81526004018080602001828103825260248152602001806104d16024913960400191505060405180910390fd5b60055460ff166102bb5760405162461bcd60e51b81526004018080602001828103825260228152602001806104f56022913960400191505060405180910390fd5b6004543414610311576040805162461bcd60e51b815260206004820152601d60248201527f4e65656420746f2073656e64207468652065786163742070726963652e000000604482015290519081900360640190fd5b600080546040516001600160a01b039091169182913480156108fc0292909190818181858888f1935050505015801561034e573d6000803e3d6000fd5b506103583361048e565b506005805460ff19169055565b60035481565b60018054604080516020600284861615610100026000190190941693909304601f810184900484028201840190925281815292918301828280156103f05780601f106103c5576101008083540402835291602001916103f0565b820191906000526020600020905b8154815290600101906020018083116103d357829003601f168201915b505050505081565b60045481565b6000546001600160a01b031681565b6002805460408051602060018416156101000260001901909316849004601f810184900484028201840190925281815292918301828280156103f05780601f106103c5576101008083540402835291602001916103f0565b6000546001600160a01b031633141561048b5760048190556005805460ff191660011790555b50565b6000546001600160a01b031633141561048b576001600160a01b0381161561048b57600080546001600160a01b0383166001600160a01b03199091161790555056fe4f776e65722063616e206e6f7420627579207468656972206f776e20617274776f726b2e417274776f726b2069732063757272656e746c79206e6f7420666f722073616c652ea265627a7a7231582037959c44b1a1a7c7d6757a47b568fd11a1e4979518de2ca999a42e56a79455a264736f6c63430005100032",
  "source": "// SPDX-License-Identifier: MIT\npragma solidity >=0.4.22 <0.9.0;\n\nimport \"./Marketplace.sol\";\nimport \"./Ownable.sol\";\n\ncontract Artwork is Ownable {\n    string public artworkName;\n    string public artworkUrl;\n    bytes32 public artworkHash;\n    uint public artworkPrice;\n    bool public isArtworkForSale;\n\n    constructor(string memory _artworkName, string memory _artworkUrl) Ownable() public {\n        artworkName = _artworkName;\n        artworkUrl = _artworkUrl;\n        artworkHash = keccak256(abi.encode(_artworkUrl));\n        isArtworkForSale = false;\n    }\n\n    function sellArtwork (uint _artworkPrice) public onlyOwner {\n        artworkPrice = _artworkPrice;\n        isArtworkForSale = true;\n    }\n\n    function buyArtwork() public payable {\n\n        require(owner != msg.sender, 'Owner can not buy their own artwork.');\n        require(isArtworkForSale, 'Artwork is currently not for sale.');\n        require(msg.value == artworkPrice, 'Need to send the exact price.');\n\n        address payable payableOwner = address(uint160(owner));\n        payableOwner.transfer(msg.value);\n\n        transferOwnership(msg.sender);\n        isArtworkForSale = false;\n    }\n}",
  "sourcePath": "/projects/BC-Group-3/ethereum/contracts/Artwork.sol",
  "compiler": {
    "name": "solc",
    "version": "0.5.16+commit.9c3226ce.Emscripten.clang"
  },
  "schemaVersion": "3.4.0",
  "updatedAt": "2021-07-02T22:01:22.869Z",
  "devdoc": {
    "methods": {}
  },
  "userdoc": {
    "methods": {}
  }
}