{
  "contractName": "Artwork",
  "abi": [
    {
      "inputs": [
        {
          "internalType": "string",
          "name": "_name",
          "type": "string"
        },
        {
          "internalType": "int256",
          "name": "_price",
          "type": "int256"
        },
        {
          "internalType": "address",
          "name": "_paymentAddressSeller",
          "type": "address"
        },
        {
          "internalType": "address",
          "name": "_marketplaceAddress",
          "type": "address"
        }
      ],
      "payable": false,
      "stateMutability": "nonpayable",
      "type": "constructor"
    },
    {
      "constant": true,
      "inputs": [],
      "name": "marketplaceAddress",
      "outputs": [
        {
          "internalType": "address",
          "name": "",
          "type": "address"
        }
      ],
      "payable": false,
      "stateMutability": "view",
      "type": "function"
    },
    {
      "constant": true,
      "inputs": [],
      "name": "name",
      "outputs": [
        {
          "internalType": "string",
          "name": "",
          "type": "string"
        }
      ],
      "payable": false,
      "stateMutability": "view",
      "type": "function"
    },
    {
      "constant": true,
      "inputs": [],
      "name": "paymentAddressSeller",
      "outputs": [
        {
          "internalType": "address",
          "name": "",
          "type": "address"
        }
      ],
      "payable": false,
      "stateMutability": "view",
      "type": "function"
    },
    {
      "constant": true,
      "inputs": [],
      "name": "price",
      "outputs": [
        {
          "internalType": "int256",
          "name": "",
          "type": "int256"
        }
      ],
      "payable": false,
      "stateMutability": "view",
      "type": "function"
    },
    {
      "constant": false,
      "inputs": [],
      "name": "buyArtwork",
      "outputs": [],
      "payable": false,
      "stateMutability": "nonpayable",
      "type": "function"
    }
  ],
  "bytecode": "0x608060405234801561001057600080fd5b506040516105313803806105318339818101604052608081101561003357600080fd5b810190808051604051939291908464010000000082111561005357600080fd5b90830190602082018581111561006857600080fd5b825164010000000081118282018810171561008257600080fd5b82525081516020918201929091019080838360005b838110156100af578181015183820152602001610097565b50505050905090810190601f1680156100dc5780820380516001836020036101000a031916815260200191505b5060409081526020828101519183015160609093015160008054610100600160a81b0319166101006001600160a01b038088169190910291909117909155600180546001600160a01b031916918316919091179055865192955092935061014891600291870190610154565b505050600355506101ef565b828054600181600116156101000203166002900490600052602060002090601f016020900481019282601f1061019557805160ff19168380011785556101c2565b828001600101855582156101c2579182015b828111156101c25782518255916020019190600101906101a7565b506101ce9291506101d2565b5090565b6101ec91905b808211156101ce57600081556001016101d8565b90565b610333806101fe6000396000f3fe608060405234801561001057600080fd5b50600436106100575760003560e01c806306fdde031461005c57806307987270146100d95780632ddcde1a146100fd578063a035b1fe14610107578063daa17f4914610121575b600080fd5b610064610129565b6040805160208082528351818301528351919283929083019185019080838360005b8381101561009e578181015183820152602001610086565b50505050905090810190601f1680156100cb5780820380516001836020036101000a031916815260200191505b509250505060405180910390f35b6100e16101b4565b604080516001600160a01b039092168252519081900360200190f35b6101056101c8565b005b61010f6102e9565b60408051918252519081900360200190f35b6100e16102ef565b6002805460408051602060018416156101000260001901909316849004601f810184900484028201840190925281815292918301828280156101ac5780601f10610181576101008083540402835291602001916101ac565b820191906000526020600020905b81548152906001019060200180831161018f57829003601f168201915b505050505081565b60005461010090046001600160a01b031681565b60005461010090046001600160a01b03163314156101e557600080fd5b6001546003546040805163027d127560e31b81523360048201526024810192909252516001600160a01b039092169182916313e893a8916044808301926020929190829003018186803b15801561023b57600080fd5b505afa15801561024f573d6000803e3d6000fd5b505050506040513d602081101561026557600080fd5b505161027057600080fd5b60008054600354604080516333f2f2e760e01b81526001600160a01b0361010090940484166004820152336024820152604481019290925251918416926333f2f2e79260648084019382900301818387803b1580156102ce57600080fd5b505af11580156102e2573d6000803e3d6000fd5b5050505050565b60035481565b6001546001600160a01b03168156fea265627a7a7231582068e9afeb2d17403d79f18628db59c045306b63648e9c93d8bc9af28f25e97d4164736f6c63430005100032",
  "source": "// SPDX-License-Identifier: MIT\npragma solidity >=0.4.22 <0.9.0;\n\nimport \"./Marketplace.sol\";\n\ncontract Artwork {\n\n    bool isSold;\n\n    address public paymentAddressSeller;\n    address public marketplaceAddress;\n    string public name;\n    int public price;\n\n    constructor(string memory _name, int _price, address _paymentAddressSeller, address _marketplaceAddress) public {\n        paymentAddressSeller = _paymentAddressSeller;\n        marketplaceAddress = _marketplaceAddress;\n        name = _name;\n        price = _price;\n    }\n\n    function buyArtwork() public {\n\n        if (paymentAddressSeller == msg.sender) {\n            revert();\n        }\n\n        Marketplace marketplace = Marketplace(marketplaceAddress);\n\n        if (!marketplace.checkBalance(msg.sender, price)) {\n            revert();\n        }\n\n        marketplace.updateBalance(paymentAddressSeller, msg.sender, price);\n\n    }\n}",
  "sourcePath": "/projects/BC-Group-3/ethereum/contracts/Artwork.sol",
  "compiler": {
    "name": "solc",
    "version": "0.5.16+commit.9c3226ce.Emscripten.clang"
  },
  "schemaVersion": "3.4.0",
  "updatedAt": "2021-06-24T20:45:57.093Z",
  "devdoc": {
    "methods": {}
  },
  "userdoc": {
    "methods": {}
  }
}