{
  "contractName": "Artwork",
  "abi": [
    {
      "inputs": [
        {
          "internalType": "string",
          "name": "_name",
          "type": "string"
        },
        {
          "internalType": "uint256",
          "name": "_price",
          "type": "uint256"
        },
        {
          "internalType": "bool",
          "name": "_forSale",
          "type": "bool"
        },
        {
          "internalType": "string",
          "name": "_imageHash",
          "type": "string"
        },
        {
          "internalType": "string",
          "name": "_imageUrl",
          "type": "string"
        },
        {
          "internalType": "address",
          "name": "_author",
          "type": "address"
        },
        {
          "internalType": "address",
          "name": "_marketplaceAddress",
          "type": "address"
        },
        {
          "internalType": "contract Marketplace",
          "name": "_marketplace",
          "type": "address"
        }
      ],
      "payable": false,
      "stateMutability": "nonpayable",
      "type": "constructor"
    },
    {
      "constant": true,
      "inputs": [],
      "name": "author",
      "outputs": [
        {
          "internalType": "address",
          "name": "",
          "type": "address"
        }
      ],
      "payable": false,
      "stateMutability": "view",
      "type": "function"
    },
    {
      "constant": false,
      "inputs": [],
      "name": "buyOwnable",
      "outputs": [],
      "payable": false,
      "stateMutability": "nonpayable",
      "type": "function"
    },
    {
      "constant": true,
      "inputs": [],
      "name": "contentHash",
      "outputs": [
        {
          "internalType": "string",
          "name": "",
          "type": "string"
        }
      ],
      "payable": false,
      "stateMutability": "view",
      "type": "function"
    },
    {
      "constant": false,
      "inputs": [
        {
          "internalType": "uint256",
          "name": "_price",
          "type": "uint256"
        }
      ],
      "name": "declareForSale",
      "outputs": [],
      "payable": false,
      "stateMutability": "nonpayable",
      "type": "function"
    },
    {
      "constant": true,
      "inputs": [],
      "name": "forSale",
      "outputs": [
        {
          "internalType": "bool",
          "name": "",
          "type": "bool"
        }
      ],
      "payable": false,
      "stateMutability": "view",
      "type": "function"
    },
    {
      "constant": true,
      "inputs": [],
      "name": "imageHash",
      "outputs": [
        {
          "internalType": "string",
          "name": "",
          "type": "string"
        }
      ],
      "payable": false,
      "stateMutability": "view",
      "type": "function"
    },
    {
      "constant": true,
      "inputs": [],
      "name": "imageUrl",
      "outputs": [
        {
          "internalType": "string",
          "name": "",
          "type": "string"
        }
      ],
      "payable": false,
      "stateMutability": "view",
      "type": "function"
    },
    {
      "constant": true,
      "inputs": [],
      "name": "marketplaceAddress",
      "outputs": [
        {
          "internalType": "address",
          "name": "",
          "type": "address"
        }
      ],
      "payable": false,
      "stateMutability": "view",
      "type": "function"
    },
    {
      "constant": true,
      "inputs": [],
      "name": "name",
      "outputs": [
        {
          "internalType": "string",
          "name": "",
          "type": "string"
        }
      ],
      "payable": false,
      "stateMutability": "view",
      "type": "function"
    },
    {
      "constant": true,
      "inputs": [],
      "name": "owner",
      "outputs": [
        {
          "internalType": "address",
          "name": "",
          "type": "address"
        }
      ],
      "payable": false,
      "stateMutability": "view",
      "type": "function"
    },
    {
      "constant": true,
      "inputs": [],
      "name": "price",
      "outputs": [
        {
          "internalType": "uint256",
          "name": "",
          "type": "uint256"
        }
      ],
      "payable": false,
      "stateMutability": "view",
      "type": "function"
    },
    {
      "constant": false,
      "inputs": [],
      "name": "purchaseProduct",
      "outputs": [
        {
          "internalType": "bool",
          "name": "",
          "type": "bool"
        }
      ],
      "payable": true,
      "stateMutability": "payable",
      "type": "function"
    },
    {
      "constant": false,
      "inputs": [
        {
          "internalType": "uint256",
          "name": "newPrice",
          "type": "uint256"
        }
      ],
      "name": "setPrice",
      "outputs": [],
      "payable": false,
      "stateMutability": "nonpayable",
      "type": "function"
    },
    {
      "constant": false,
      "inputs": [],
      "name": "transferOwnership",
      "outputs": [],
      "payable": false,
      "stateMutability": "nonpayable",
      "type": "function"
    }
  ],
  "bytecode": "0x608060405234801561001057600080fd5b50604051610a08380380610a08833981810160405261010081101561003457600080fd5b810190808051604051939291908464010000000082111561005457600080fd5b90830190602082018581111561006957600080fd5b825164010000000081118282018810171561008357600080fd5b82525081516020918201929091019080838360005b838110156100b0578181015183820152602001610098565b50505050905090810190601f1680156100dd5780820380516001836020036101000a031916815260200191505b5060408181526020830151908301516060909301805191959394929392918464010000000082111561010e57600080fd5b90830190602082018581111561012357600080fd5b825164010000000081118282018810171561013d57600080fd5b82525081516020918201929091019080838360005b8381101561016a578181015183820152602001610152565b50505050905090810190601f1680156101975780820380516001836020036101000a031916815260200191505b50604052602001805160405193929190846401000000008211156101ba57600080fd5b9083019060208201858111156101cf57600080fd5b82516401000000008111828201881017156101e957600080fd5b82525081516020918201929091019080838360005b838110156102165781810151838201526020016101fe565b50505050905090810190601f1680156102435780820380516001836020036101000a031916815260200191505b506040908152602082810151918301516060909301518a51929550929350610270916002918b0190610308565b5060048790556003805487151560ff19909116179055600080546001600160a01b0319163317905584516102ab906007906020880190610308565b5083516102bf906008906020870190610308565b50600980546001600160a01b039485166001600160a01b031991821617909155600580549385169382169390931790925560068054919093169116179055506103a39350505050565b828054600181600116156101000203166002900490600052602060002090601f016020900481019282601f1061034957805160ff1916838001178555610376565b82800160010185558215610376579182015b8281111561037657825182559160200191906001019061035b565b50610382929150610386565b5090565b6103a091905b80821115610382576000815560010161038c565b90565b610656806103b26000396000f3fe6080604052600436106100dd5760003560e01c8063880ad0af1161007f578063a035b1fe11610059578063a035b1fe14610278578063a6c3e6b91461029f578063aba83150146102b4578063daa17f49146102c9576100dd565b8063880ad0af146102085780638da5cb5b1461021d57806391b7f5ed1461024e576100dd565b80633fd62627116100bb5780633fd626271461019f578063466ccac0146101c957806351605d80146101de578063646c2e33146101f3576100dd565b806306fdde03146100e25780632a304dc61461016c5780633fd0242314610183575b600080fd5b3480156100ee57600080fd5b506100f76102de565b6040805160208082528351818301528351919283929083019185019080838360005b83811015610131578181015183820152602001610119565b50505050905090810190601f16801561015e5780820380516001836020036101000a031916815260200191505b509250505060405180910390f35b34801561017857600080fd5b50610181610369565b005b61018b610435565b604080519115158252519081900360200190f35b3480156101ab57600080fd5b50610181600480360360208110156101c257600080fd5b503561048f565b3480156101d557600080fd5b5061018b6104bc565b3480156101ea57600080fd5b506100f76104c5565b3480156101ff57600080fd5b506100f7610520565b34801561021457600080fd5b5061018161057a565b34801561022957600080fd5b5061023261058e565b604080516001600160a01b039092168252519081900360200190f35b34801561025a57600080fd5b506101816004803603602081101561027157600080fd5b503561059d565b34801561028457600080fd5b5061028d6105a2565b60408051918252519081900360200190f35b3480156102ab57600080fd5b506102326105a8565b3480156102c057600080fd5b506100f76105b7565b3480156102d557600080fd5b50610232610612565b6002805460408051602060018416156101000260001901909316849004601f810184900484028201840190925281815292918301828280156103615780601f1061033657610100808354040283529160200191610361565b820191906000526020600020905b81548152906001019060200180831161034457829003601f168201915b505050505081565b6000546001600160a01b031633141561038157600080fd5b6006546004805460408051634d7b9bd560e01b815233938101939093526024830191909152516001600160a01b0390921691634d7b9bd591604480820192602092909190829003018186803b1580156103d957600080fd5b505afa1580156103ed573d6000803e3d6000fd5b505050506040513d602081101561040357600080fd5b505161040e57600080fd5b610416610435565b5061041f61057a565b6003805460ff19169055610433600061059d565b565b600060045434101561044657600080fd5b60045434111561048957600454604051349190910390339082156108fc029083906000818181858888f19350505050158015610486573d6000803e3d6000fd5b50505b50600190565b6000546001600160a01b03163314156104b9576104ab8161059d565b6003805460ff191660011790555b50565b60035460ff1681565b6007805460408051602060026001851615610100026000190190941693909304601f810184900484028201840190925281815292918301828280156103615780601f1061033657610100808354040283529160200191610361565b60018054604080516020600284861615610100026000190190941693909304601f810184900484028201840190925281815292918301828280156103615780601f1061033657610100808354040283529160200191610361565b600080546001600160a01b03191633179055565b6000546001600160a01b031681565b600455565b60045481565b6009546001600160a01b031681565b6008805460408051602060026001851615610100026000190190941693909304601f810184900484028201840190925281815292918301828280156103615780601f1061033657610100808354040283529160200191610361565b6005546001600160a01b03168156fea265627a7a7231582022b71bd90a2cc4a23bd29d36a96154127d805b184981d74447fba7304d99477764736f6c63430005100032",
  "source": "// SPDX-License-Identifier: MIT\npragma solidity >=0.4.22 <0.9.0;\n\nimport \"./Marketplace.sol\";\n\ncontract Artwork is Ownable {\n\n    string public imageHash;\n    string public imageUrl;\n    address public author;\n\n    constructor(string memory _name, uint _price, bool _forSale, string memory _imageHash, string memory _imageUrl, address _author, address _marketplaceAddress, Marketplace _marketplace) public {\n        name = _name;\n        price = _price;\n        forSale = _forSale;\n        owner = msg.sender;\n        imageHash = _imageHash;\n        imageUrl = _imageUrl;\n        author = _author;\n        marketplaceAddress = _marketplaceAddress;\n        marketplace = _marketplace;    \n    }\n}",
  "sourcePath": "/projects/BC-Group-3/ethereum/contracts/Artwork.sol",
  "compiler": {
    "name": "solc",
    "version": "0.5.16+commit.9c3226ce.Emscripten.clang"
  },
  "schemaVersion": "3.4.0",
  "updatedAt": "2021-07-01T08:48:30.509Z",
  "devdoc": {
    "methods": {}
  },
  "userdoc": {
    "methods": {}
  }
}