{
  "contractName": "MarketplaceCreator",
  "abi": [
    {
      "constant": true,
      "inputs": [
        {
          "internalType": "uint256",
          "name": "",
          "type": "uint256"
        }
      ],
      "name": "marketplaces",
      "outputs": [
        {
          "internalType": "address",
          "name": "",
          "type": "address"
        }
      ],
      "payable": false,
      "stateMutability": "view",
      "type": "function"
    },
    {
      "constant": false,
      "inputs": [
        {
          "internalType": "address",
          "name": "paymentAddressA",
          "type": "address"
        },
        {
          "internalType": "int256",
          "name": "currentBalanceA",
          "type": "int256"
        },
        {
          "internalType": "address",
          "name": "paymentAddressB",
          "type": "address"
        },
        {
          "internalType": "int256",
          "name": "currentBalanceB",
          "type": "int256"
        }
      ],
      "name": "createMarketplace",
      "outputs": [],
      "payable": false,
      "stateMutability": "nonpayable",
      "type": "function"
    },
    {
      "constant": true,
      "inputs": [],
      "name": "getDeployedMarketplaces",
      "outputs": [
        {
          "internalType": "address[]",
          "name": "",
          "type": "address[]"
        }
      ],
      "payable": false,
      "stateMutability": "view",
      "type": "function"
    }
  ],
  "bytecode": "0x608060405234801561001057600080fd5b50610c67806100206000396000f3fe608060405234801561001057600080fd5b50600436106100415760003560e01c80632b64deec1461004657806357d2ced61461007f5780637344a9b9146100d7575b600080fd5b6100636004803603602081101561005c57600080fd5b5035610113565b604080516001600160a01b039092168252519081900360200190f35b61008761013a565b60408051602080825283518183015283519192839290830191858101910280838360005b838110156100c35781810151838201526020016100ab565b505050509050019250505060405180910390f35b610111600480360360808110156100ed57600080fd5b506001600160a01b038135811691602081013591604082013516906060013561019c565b005b6000818154811061012057fe5b6000918252602090912001546001600160a01b0316905081565b6060600080548060200260200160405190810160405280929190818152602001828054801561019257602002820191906000526020600020905b81546001600160a01b03168152600190910190602001808311610174575b5050505050905090565b6000848484846040516101ae9061024a565b6001600160a01b039485168152602081019390935292166040808301919091526060820192909252905190819003608001906000f0801580156101f5573d6000803e3d6000fd5b50600080546001810182559080527f290decd9548b62a8d60345a988386fc84ba6bc95484008f6362f93160ef3e5630180546001600160a01b0319166001600160a01b03929092169190911790555050505050565b6109db806102588339019056fe608060405234801561001057600080fd5b506040516109db3803806109db8339818101604052608081101561003357600080fd5b50805160208201516040830151606090930151600080546001600160a01b03191633179055919290916001600160a01b03808516908316141561007557600080fd5b600180546001600160a01b03199081166001600160a01b03968716179091556002939093556003805490931691909316179055600455610921806100ba6000396000f3fe608060405234801561001057600080fd5b50600436106100575760003560e01c806313e893a81461005c57806333f2f2e71461009c5780638da5cb5b146100d4578063c4131ce4146100f8578063f2fde38b146101a0575b600080fd5b6100886004803603604081101561007257600080fd5b506001600160a01b0381351690602001356101c6565b604080519115158252519081900360200190f35b6100d2600480360360608110156100b257600080fd5b506001600160a01b0381358116916020810135909116906040013561022b565b005b6100dc61026f565b604080516001600160a01b039092168252519081900360200190f35b6100d26004803603604081101561010e57600080fd5b81019060208101813564010000000081111561012957600080fd5b82018360208201111561013b57600080fd5b8035906020019184600183028401116401000000008311171561015d57600080fd5b91908080601f016020809104026020016040519081016040528093929190818152602001838380828437600092019190915250929550509135925061027e915050565b6100d2600480360360208110156101b657600080fd5b50356001600160a01b031661036d565b6001546000906001600160a01b0384811691161480156101e857506002548213155b156101f557506001610225565b6003546001600160a01b03848116911614801561021457506004548213155b1561022157506001610225565b5060005b92915050565b6001546001600160a01b038381169116141561024a5760028054820190555b6003546001600160a01b038481169116141561026a576004805482900390555b505050565b6000546001600160a01b031681565b6000546001600160a01b031633141561036957818133306040516102a1906103ae565b60208082018590526001600160a01b0380851660408401528316606083015260808083528651908301528551829160a08301919088019080838360005b838110156102f65781810151838201526020016102de565b50505050905090810190601f1680156103235780820380516001836020036101000a031916815260200191505b5095505050505050604051809103906000f080158015610347573d6000803e3d6000fd5b50600580546001600160a01b0319166001600160a01b03929092169190911790555b5050565b6000546001600160a01b03163314156103ab576001600160a01b038116156103ab57600080546001600160a01b0319166001600160a01b0383161790555b50565b610531806103bc8339019056fe608060405234801561001057600080fd5b506040516105313803806105318339818101604052608081101561003357600080fd5b810190808051604051939291908464010000000082111561005357600080fd5b90830190602082018581111561006857600080fd5b825164010000000081118282018810171561008257600080fd5b82525081516020918201929091019080838360005b838110156100af578181015183820152602001610097565b50505050905090810190601f1680156100dc5780820380516001836020036101000a031916815260200191505b5060409081526020828101519183015160609093015160008054610100600160a81b0319166101006001600160a01b038088169190910291909117909155600180546001600160a01b031916918316919091179055865192955092935061014891600291870190610154565b505050600355506101ef565b828054600181600116156101000203166002900490600052602060002090601f016020900481019282601f1061019557805160ff19168380011785556101c2565b828001600101855582156101c2579182015b828111156101c25782518255916020019190600101906101a7565b506101ce9291506101d2565b5090565b6101ec91905b808211156101ce57600081556001016101d8565b90565b610333806101fe6000396000f3fe608060405234801561001057600080fd5b50600436106100575760003560e01c806306fdde031461005c57806307987270146100d95780632ddcde1a146100fd578063a035b1fe14610107578063daa17f4914610121575b600080fd5b610064610129565b6040805160208082528351818301528351919283929083019185019080838360005b8381101561009e578181015183820152602001610086565b50505050905090810190601f1680156100cb5780820380516001836020036101000a031916815260200191505b509250505060405180910390f35b6100e16101b4565b604080516001600160a01b039092168252519081900360200190f35b6101056101c8565b005b61010f6102e9565b60408051918252519081900360200190f35b6100e16102ef565b6002805460408051602060018416156101000260001901909316849004601f810184900484028201840190925281815292918301828280156101ac5780601f10610181576101008083540402835291602001916101ac565b820191906000526020600020905b81548152906001019060200180831161018f57829003601f168201915b505050505081565b60005461010090046001600160a01b031681565b60005461010090046001600160a01b03163314156101e557600080fd5b6001546003546040805163027d127560e31b81523360048201526024810192909252516001600160a01b039092169182916313e893a8916044808301926020929190829003018186803b15801561023b57600080fd5b505afa15801561024f573d6000803e3d6000fd5b505050506040513d602081101561026557600080fd5b505161027057600080fd5b60008054600354604080516333f2f2e760e01b81526001600160a01b0361010090940484166004820152336024820152604481019290925251918416926333f2f2e79260648084019382900301818387803b1580156102ce57600080fd5b505af11580156102e2573d6000803e3d6000fd5b5050505050565b60035481565b6001546001600160a01b03168156fea265627a7a7231582068e9afeb2d17403d79f18628db59c045306b63648e9c93d8bc9af28f25e97d4164736f6c63430005100032a265627a7a72315820029cc1526f432a1456a397deefb84eb561c2f1457c8a77daf09ac065ff4b061f64736f6c63430005100032a265627a7a7231582059179f236044f52758f76a8633c114409d3f2184f22d619ee0dc44108026c35c64736f6c63430005100032",
  "source": "// SPDX-License-Identifier: MIT\npragma solidity >=0.4.22 <0.9.0;\n\nimport \"./Marketplace.sol\";\n\ncontract MarketplaceCreator {\n    address[] public marketplaces;\n\n    function createMarketplace(address paymentAddressA, int currentBalanceA, address paymentAddressB, int currentBalanceB) public {\n        address newMarketplace = address (\n            new Marketplace(\n                paymentAddressA,\n                currentBalanceA,\n                paymentAddressB,\n                currentBalanceB\n            )\n        );\n        marketplaces.push(newMarketplace);\n    }\n\n    function getDeployedMarketplaces() public view returns( address[] memory) { return marketplaces;} \n}",
  "sourcePath": "/projects/BC-Group-3/ethereum/contracts/MarketplaceCreator.sol",
  "compiler": {
    "name": "solc",
    "version": "0.5.16+commit.9c3226ce.Emscripten.clang"
  },
  "schemaVersion": "3.4.0",
  "updatedAt": "2021-06-24T20:47:19.067Z",
  "networkType": "ethereum",
  "devdoc": {
    "methods": {}
  },
  "userdoc": {
    "methods": {}
  }
}