{
  "contractName": "MarketplaceCreator",
  "abi": [
    {
      "constant": true,
      "inputs": [
        {
          "internalType": "uint256",
          "name": "",
          "type": "uint256"
        }
      ],
      "name": "marketplaces",
      "outputs": [
        {
          "internalType": "address",
          "name": "",
          "type": "address"
        }
      ],
      "payable": false,
      "stateMutability": "view",
      "type": "function"
    },
    {
      "constant": false,
      "inputs": [],
      "name": "createMarketplace",
      "outputs": [],
      "payable": false,
      "stateMutability": "nonpayable",
      "type": "function"
    },
    {
      "constant": true,
      "inputs": [],
      "name": "getDeployedMarketplaces",
      "outputs": [
        {
          "internalType": "address[]",
          "name": "",
          "type": "address[]"
        }
      ],
      "payable": false,
      "stateMutability": "view",
      "type": "function"
    }
  ],
  "bytecode": "0x608060405234801561001057600080fd5b5061125a806100206000396000f3fe608060405234801561001057600080fd5b50600436106100415760003560e01c80632b64deec1461004657806357d2ced61461007f578063cb837296146100d7575b600080fd5b6100636004803603602081101561005c57600080fd5b50356100e1565b604080516001600160a01b039092168252519081900360200190f35b610087610108565b60408051602080825283518183015283519192839290830191858101910280838360005b838110156100c35781810151838201526020016100ab565b505050509050019250505060405180910390f35b6100df61016a565b005b600081815481106100ee57fe5b6000918252602090912001546001600160a01b0316905081565b6060600080548060200260200160405190810160405280929190818152602001828054801561016057602002820191906000526020600020905b81546001600160a01b03168152600190910190602001808311610142575b5050505050905090565b600033604051610179906101f7565b6001600160a01b03909116815260405190819003602001906000f0801580156101a6573d6000803e3d6000fd5b50600080546001810182559080527f290decd9548b62a8d60345a988386fc84ba6bc95484008f6362f93160ef3e5630180546001600160a01b0319166001600160a01b039290921691909117905550565b611021806102058339019056fe608060405234801561001057600080fd5b506040516110213803806110218339818101604052602081101561003357600080fd5b5051600080546001600160a01b039092166001600160a01b0319909216919091179055610fbc806100656000396000f3fe608060405234801561001057600080fd5b506004361061004c5760003560e01c80634d7b9bd5146100515780638da5cb5b14610091578063efb29983146100b5578063fe801f8b14610284575b600080fd5b61007d6004803603604081101561006757600080fd5b506001600160a01b0381351690602001356102a1565b604080519115158252519081900360200190f35b6100996102c6565b604080516001600160a01b039092168252519081900360200190f35b610282600480360360c08110156100cb57600080fd5b8101906020810181356401000000008111156100e657600080fd5b8201836020820111156100f857600080fd5b8035906020019184600183028401116401000000008311171561011a57600080fd5b91908080601f0160208091040260200160405190810160405280939291908181526020018383808284376000920191909152509295843595602086013515159591945092506060810191506040013564010000000081111561017b57600080fd5b82018360208201111561018d57600080fd5b803590602001918460018302840111640100000000831117156101af57600080fd5b91908080601f016020809104026020016040519081016040528093929190818152602001838380828437600092019190915250929594936020810193503591505064010000000081111561020257600080fd5b82018360208201111561021457600080fd5b8035906020019184600183028401116401000000008311171561023657600080fd5b91908080601f016020809104026020016040519081016040528093929190818152602001838380828437600092019190915250929550505090356001600160a01b031691506102d59050565b005b6100996004803603602081101561029a57600080fd5b5035610488565b6000826001600160a01b03163182116102bc575060016102c0565b5060005b92915050565b6000546001600160a01b031681565b600086868686868630306040516102eb90610572565b602080820189905287151560408301526001600160a01b0380861660a084015284811660c0840152831660e08301526101008083528a51908301528951829160608301916080840191610120850191908e019080838360005b8381101561035c578181015183820152602001610344565b50505050905090810190601f1680156103895780820380516001836020036101000a031916815260200191505b5084810383528951815289516020918201918b019080838360005b838110156103bc5781810151838201526020016103a4565b50505050905090810190601f1680156103e95780820380516001836020036101000a031916815260200191505b5084810382528851815288516020918201918a019080838360005b8381101561041c578181015183820152602001610404565b50505050905090810190601f1680156104495780820380516001836020036101000a031916815260200191505b509b505050505050505050505050604051809103906000f080158015610473573d6000803e3d6000fd5b50905061047f816104af565b50505050505050565b6001818154811061049557fe5b6000918252602090912001546001600160a01b0316905081565b806001600160a01b0316638da5cb5b6040518163ffffffff1660e01b815260040160206040518083038186803b1580156104e857600080fd5b505afa1580156104fc573d6000803e3d6000fd5b505050506040513d602081101561051257600080fd5b50516001600160a01b031633141561056f576001805480820182556000919091527fb10e2d527612073b26eecdfd717e6a320cf44b4afac2b0732d9fcbe2b7fa0cf60180546001600160a01b0319166001600160a01b0383161790555b50565b610a08806105808339019056fe608060405234801561001057600080fd5b50604051610a08380380610a08833981810160405261010081101561003457600080fd5b810190808051604051939291908464010000000082111561005457600080fd5b90830190602082018581111561006957600080fd5b825164010000000081118282018810171561008357600080fd5b82525081516020918201929091019080838360005b838110156100b0578181015183820152602001610098565b50505050905090810190601f1680156100dd5780820380516001836020036101000a031916815260200191505b5060408181526020830151908301516060909301805191959394929392918464010000000082111561010e57600080fd5b90830190602082018581111561012357600080fd5b825164010000000081118282018810171561013d57600080fd5b82525081516020918201929091019080838360005b8381101561016a578181015183820152602001610152565b50505050905090810190601f1680156101975780820380516001836020036101000a031916815260200191505b50604052602001805160405193929190846401000000008211156101ba57600080fd5b9083019060208201858111156101cf57600080fd5b82516401000000008111828201881017156101e957600080fd5b82525081516020918201929091019080838360005b838110156102165781810151838201526020016101fe565b50505050905090810190601f1680156102435780820380516001836020036101000a031916815260200191505b506040908152602082810151918301516060909301518a51929550929350610270916002918b0190610308565b5060048790556003805487151560ff19909116179055600080546001600160a01b0319163317905584516102ab906007906020880190610308565b5083516102bf906008906020870190610308565b50600980546001600160a01b039485166001600160a01b031991821617909155600580549385169382169390931790925560068054919093169116179055506103a39350505050565b828054600181600116156101000203166002900490600052602060002090601f016020900481019282601f1061034957805160ff1916838001178555610376565b82800160010185558215610376579182015b8281111561037657825182559160200191906001019061035b565b50610382929150610386565b5090565b6103a091905b80821115610382576000815560010161038c565b90565b610656806103b26000396000f3fe6080604052600436106100dd5760003560e01c8063880ad0af1161007f578063a035b1fe11610059578063a035b1fe14610278578063a6c3e6b91461029f578063aba83150146102b4578063daa17f49146102c9576100dd565b8063880ad0af146102085780638da5cb5b1461021d57806391b7f5ed1461024e576100dd565b80633fd62627116100bb5780633fd626271461019f578063466ccac0146101c957806351605d80146101de578063646c2e33146101f3576100dd565b806306fdde03146100e25780632a304dc61461016c5780633fd0242314610183575b600080fd5b3480156100ee57600080fd5b506100f76102de565b6040805160208082528351818301528351919283929083019185019080838360005b83811015610131578181015183820152602001610119565b50505050905090810190601f16801561015e5780820380516001836020036101000a031916815260200191505b509250505060405180910390f35b34801561017857600080fd5b50610181610369565b005b61018b610435565b604080519115158252519081900360200190f35b3480156101ab57600080fd5b50610181600480360360208110156101c257600080fd5b503561048f565b3480156101d557600080fd5b5061018b6104bc565b3480156101ea57600080fd5b506100f76104c5565b3480156101ff57600080fd5b506100f7610520565b34801561021457600080fd5b5061018161057a565b34801561022957600080fd5b5061023261058e565b604080516001600160a01b039092168252519081900360200190f35b34801561025a57600080fd5b506101816004803603602081101561027157600080fd5b503561059d565b34801561028457600080fd5b5061028d6105a2565b60408051918252519081900360200190f35b3480156102ab57600080fd5b506102326105a8565b3480156102c057600080fd5b506100f76105b7565b3480156102d557600080fd5b50610232610612565b6002805460408051602060018416156101000260001901909316849004601f810184900484028201840190925281815292918301828280156103615780601f1061033657610100808354040283529160200191610361565b820191906000526020600020905b81548152906001019060200180831161034457829003601f168201915b505050505081565b6000546001600160a01b031633141561038157600080fd5b6006546004805460408051634d7b9bd560e01b815233938101939093526024830191909152516001600160a01b0390921691634d7b9bd591604480820192602092909190829003018186803b1580156103d957600080fd5b505afa1580156103ed573d6000803e3d6000fd5b505050506040513d602081101561040357600080fd5b505161040e57600080fd5b610416610435565b5061041f61057a565b6003805460ff19169055610433600061059d565b565b600060045434101561044657600080fd5b60045434111561048957600454604051349190910390339082156108fc029083906000818181858888f19350505050158015610486573d6000803e3d6000fd5b50505b50600190565b6000546001600160a01b03163314156104b9576104ab8161059d565b6003805460ff191660011790555b50565b60035460ff1681565b6007805460408051602060026001851615610100026000190190941693909304601f810184900484028201840190925281815292918301828280156103615780601f1061033657610100808354040283529160200191610361565b60018054604080516020600284861615610100026000190190941693909304601f810184900484028201840190925281815292918301828280156103615780601f1061033657610100808354040283529160200191610361565b600080546001600160a01b03191633179055565b6000546001600160a01b031681565b600455565b60045481565b6009546001600160a01b031681565b6008805460408051602060026001851615610100026000190190941693909304601f810184900484028201840190925281815292918301828280156103615780601f1061033657610100808354040283529160200191610361565b6005546001600160a01b03168156fea265627a7a7231582022b71bd90a2cc4a23bd29d36a96154127d805b184981d74447fba7304d99477764736f6c63430005100032a265627a7a72315820a18eb3db0e22a02c879bf0c425bf98f16194a470cb65316564fdd1c7b4765a3064736f6c63430005100032a265627a7a72315820c7db3a020976ac5ea903a32fda3806def095f49df42fe34808ac811f9ecc4a5764736f6c63430005100032",
  "source": "// SPDX-License-Identifier: MIT\npragma solidity >=0.4.22 <0.9.0;\n\nimport \"./Marketplace.sol\";\n\ncontract MarketplaceCreator {\n    address[] public marketplaces;\n\n    function createMarketplace() public {\n        address newMarketplace = address (\n            new Marketplace(msg.sender)\n        );\n        marketplaces.push(newMarketplace);\n    }\n\n    function getDeployedMarketplaces() public view returns( address[] memory) { return marketplaces;} \n}",
  "sourcePath": "/projects/BC-Group-3/ethereum/contracts/MarketplaceCreator.sol",
  "compiler": {
    "name": "solc",
    "version": "0.5.16+commit.9c3226ce.Emscripten.clang"
  },
  "schemaVersion": "3.4.0",
  "updatedAt": "2021-07-01T09:14:54.583Z",
  "networkType": "ethereum",
  "devdoc": {
    "methods": {}
  },
  "userdoc": {
    "methods": {}
  }
}