{
  "contractName": "MarketplaceCreator",
  "abi": [
    {
      "inputs": [],
      "payable": false,
      "stateMutability": "nonpayable",
      "type": "constructor"
    },
    {
      "constant": true,
      "inputs": [],
      "name": "marketplace",
      "outputs": [
        {
          "internalType": "address",
          "name": "",
          "type": "address"
        }
      ],
      "payable": false,
      "stateMutability": "view",
      "type": "function"
    },
    {
      "constant": true,
      "inputs": [],
      "name": "getDeployedMarketplace",
      "outputs": [
        {
          "internalType": "address",
          "name": "",
          "type": "address"
        }
      ],
      "payable": false,
      "stateMutability": "view",
      "type": "function"
    }
  ],
  "bytecode": "0x608060405234801561001057600080fd5b506100226001600160e01b0361002716565b610094565b60003360405161003690610087565b6001600160a01b03909116815260405190819003602001906000f080158015610063573d6000803e3d6000fd5b50600080546001600160a01b0319166001600160a01b039290921691909117905550565b610e998061015483390190565b60b2806100a26000396000f3fe6080604052348015600f57600080fd5b506004361060325760003560e01c8063abc8c7af146037578063c3073cc3146059575b600080fd5b603d605f565b604080516001600160a01b039092168252519081900360200190f35b603d606e565b6000546001600160a01b031681565b6000546001600160a01b03169056fea265627a7a72315820234cf95bc34f2d53b23cfcaeb4326fbedba18cb9dbd9aa2a2f2d24266c1d14e764736f6c63430005100032608060405234801561001057600080fd5b50604051610e99380380610e998339818101604052602081101561003357600080fd5b5051600080546001600160a01b039092166001600160a01b03199283163317909216919091179055610e2f8061006a6000396000f3fe6080604052600436106100495760003560e01c8062a715271461004e5780634b602673146100b35780638da5cb5b146100f9578063a8ae13761461010e578063f2fde38b1461023d575b600080fd5b34801561005a57600080fd5b50610063610270565b60408051602080825283518183015283519192839290830191858101910280838360005b8381101561009f578181015183820152602001610087565b505050509050019250505060405180910390f35b3480156100bf57600080fd5b506100dd600480360360208110156100d657600080fd5b50356102d2565b604080516001600160a01b039092168252519081900360200190f35b34801561010557600080fd5b506100dd6102f9565b61023b6004803603604081101561012457600080fd5b81019060208101813564010000000081111561013f57600080fd5b82018360208201111561015157600080fd5b8035906020019184600183028401116401000000008311171561017357600080fd5b91908080601f01602080910402602001604051908101604052809392919081815260200183838082843760009201919091525092959493602081019350359150506401000000008111156101c657600080fd5b8201836020820111156101d857600080fd5b803590602001918460018302840111640100000000831117156101fa57600080fd5b91908080601f016020809104026020016040519081016040528093929190818152602001838380828437600092019190915250929550610308945050505050565b005b34801561024957600080fd5b5061023b6004803603602081101561026057600080fd5b50356001600160a01b031661054f565b606060018054806020026020016040519081016040528092919081815260200182805480156102c857602002820191906000526020600020905b81546001600160a01b031681526001909101906020018083116102aa575b5050505050905090565b600181815481106102df57fe5b6000918252602090912001546001600160a01b0316905081565b6000546001600160a01b031681565b34600a1461035d576040805162461bcd60e51b815260206004820152601d60248201527f4e65656420746f2073656e64206120666565206f66203130207765692e000000604482015290519081900360640190fd5b600080546040516001600160a01b039091169182913480156108fc0292909190818181858888f1935050505015801561039a573d6000803e3d6000fd5b50600083836040516103ab90610590565b604080825283519082015282518190602080830191606084019187019080838360005b838110156103e65781810151838201526020016103ce565b50505050905090810190601f1680156104135780820380516001836020036101000a031916815260200191505b50838103825284518152845160209182019186019080838360005b8381101561044657818101518382015260200161042e565b50505050905090810190601f1680156104735780820380516001836020036101000a031916815260200191505b50945050505050604051809103906000f080158015610496573d6000803e3d6000fd5b506040805163f2fde38b60e01b815233600482015290519192506001600160a01b0383169163f2fde38b9160248082019260009290919082900301818387803b1580156104e257600080fd5b505af11580156104f6573d6000803e3d6000fd5b50506001805480820182556000919091527fb10e2d527612073b26eecdfd717e6a320cf44b4afac2b0732d9fcbe2b7fa0cf60180546001600160a01b0319166001600160a01b0394909416939093179092555050505050565b6000546001600160a01b031633141561058d576001600160a01b0381161561058d57600080546001600160a01b0319166001600160a01b0383161790555b50565b61085d8061059e8339019056fe608060405234801561001057600080fd5b5060405161085d38038061085d8339818101604052604081101561003357600080fd5b810190808051604051939291908464010000000082111561005357600080fd5b90830190602082018581111561006857600080fd5b825164010000000081118282018810171561008257600080fd5b82525081516020918201929091019080838360005b838110156100af578181015183820152602001610097565b50505050905090810190601f1680156100dc5780820380516001836020036101000a031916815260200191505b50604052602001805160405193929190846401000000008211156100ff57600080fd5b90830190602082018581111561011457600080fd5b825164010000000081118282018810171561012e57600080fd5b82525081516020918201929091019080838360005b8381101561015b578181015183820152602001610143565b50505050905090810190601f1680156101885780820380516001836020036101000a031916815260200191505b506040525050600080546001600160a01b031916331790555081516101b4906001906020850190610268565b5080516101c8906002906020840190610268565b50806040516020018080602001828103825283818151815260200191508051906020019080838360005b8381101561020a5781810151838201526020016101f2565b50505050905090810190601f1680156102375780820380516001836020036101000a031916815260200191505b5060408051601f19818403018152919052805160209091012060035550506005805460ff1916905550610303915050565b828054600181600116156101000203166002900490600052602060002090601f016020900481019282601f106102a957805160ff19168380011785556102d6565b828001600101855582156102d6579182015b828111156102d65782518255916020019190600101906102bb565b506102e29291506102e6565b5090565b61030091905b808211156102e257600081556001016102ec565b90565b61054b806103126000396000f3fe6080604052600436106100865760003560e01c806389b5efa71161005957806389b5efa71461016f5780638da5cb5b14610184578063de0563c4146101b5578063e265a223146101ca578063f2fde38b146101f457610086565b806325f7382a1461008b5780632ddcde1a146100b4578063869dcab5146100be5780638808b36a146100e5575b600080fd5b34801561009757600080fd5b506100a0610227565b604080519115158252519081900360200190f35b6100bc610230565b005b3480156100ca57600080fd5b506100d3610365565b60408051918252519081900360200190f35b3480156100f157600080fd5b506100fa61036b565b6040805160208082528351818301528351919283929083019185019080838360005b8381101561013457818101518382015260200161011c565b50505050905090810190601f1680156101615780820380516001836020036101000a031916815260200191505b509250505060405180910390f35b34801561017b57600080fd5b506100d36103f8565b34801561019057600080fd5b506101996103fe565b604080516001600160a01b039092168252519081900360200190f35b3480156101c157600080fd5b506100fa61040d565b3480156101d657600080fd5b506100bc600480360360208110156101ed57600080fd5b5035610465565b34801561020057600080fd5b506100bc6004803603602081101561021757600080fd5b50356001600160a01b031661048e565b60055460ff1681565b6000546001600160a01b031633141561027a5760405162461bcd60e51b81526004018080602001828103825260248152602001806104d16024913960400191505060405180910390fd5b60055460ff166102bb5760405162461bcd60e51b81526004018080602001828103825260228152602001806104f56022913960400191505060405180910390fd5b6004543414610311576040805162461bcd60e51b815260206004820152601d60248201527f4e65656420746f2073656e64207468652065786163742070726963652e000000604482015290519081900360640190fd5b600080546040516001600160a01b039091169182913480156108fc0292909190818181858888f1935050505015801561034e573d6000803e3d6000fd5b506103583361048e565b506005805460ff19169055565b60035481565b60018054604080516020600284861615610100026000190190941693909304601f810184900484028201840190925281815292918301828280156103f05780601f106103c5576101008083540402835291602001916103f0565b820191906000526020600020905b8154815290600101906020018083116103d357829003601f168201915b505050505081565b60045481565b6000546001600160a01b031681565b6002805460408051602060018416156101000260001901909316849004601f810184900484028201840190925281815292918301828280156103f05780601f106103c5576101008083540402835291602001916103f0565b6000546001600160a01b031633141561048b5760048190556005805460ff191660011790555b50565b6000546001600160a01b031633141561048b576001600160a01b0381161561048b57600080546001600160a01b0383166001600160a01b03199091161790555056fe4f776e65722063616e206e6f7420627579207468656972206f776e20617274776f726b2e417274776f726b2069732063757272656e746c79206e6f7420666f722073616c652ea265627a7a723158207df5d79bfbcf79c49010aa6bd5c6dcdd4e0835c4e189c0851901bd9f4757e2c864736f6c63430005100032a265627a7a72315820648cdd6fa62293400bd5c617b5c45aa8b04856c6131d953a8f4f70da432d795164736f6c63430005100032",
  "source": "// SPDX-License-Identifier: MIT\npragma solidity >=0.4.22 <0.9.0;\n\nimport \"./Marketplace.sol\";\n\ncontract MarketplaceCreator {\n    address public marketplace;\n\n    constructor() public {\n        createMarketplace();\n    }\n\n    function createMarketplace() private {\n        address newMarketplace = address (\n            new Marketplace(msg.sender)\n        );\n        marketplace = newMarketplace;\n    }\n\n    function getDeployedMarketplace() public view returns(address) {\n        return marketplace;\n    }\n}",
  "sourcePath": "/projects/BC-Group-3/ethereum/contracts/MarketplaceCreator.sol",
  "compiler": {
    "name": "solc",
    "version": "0.5.16+commit.9c3226ce.Emscripten.clang"
  },
  "schemaVersion": "3.4.0",
  "updatedAt": "2021-07-03T10:14:09.717Z",
  "networkType": "ethereum",
  "devdoc": {
    "methods": {}
  },
  "userdoc": {
    "methods": {}
  }
}