{
  "contractName": "MarketplaceCreator",
  "abi": [
    {
      "inputs": [],
      "stateMutability": "nonpayable",
      "type": "constructor"
    },
    {
      "inputs": [],
      "name": "marketplace",
      "outputs": [
        {
          "internalType": "address",
          "name": "",
          "type": "address"
        }
      ],
      "stateMutability": "view",
      "type": "function",
      "constant": true
    }
  ],
  "bytecode": "0x608060405234801561001057600080fd5b5061001961001e565b610098565b60003360405161002d90610077565b6100379190610084565b604051809103906000f080158015610053573d6000803e3d6000fd5b50600080546001600160a01b0319166001600160a01b039290921691909117905550565b6110578061014683390190565b6001600160a01b0391909116815260200190565b60a0806100a66000396000f3fe6080604052348015600f57600080fd5b506004361060285760003560e01c8063abc8c7af14602d575b600080fd5b60336047565b604051603e91906056565b60405180910390f35b6000546001600160a01b031681565b6001600160a01b039190911681526020019056fea2646970667358221220e3e38a2916e639831fae472f2ba6183f1feb9ff0ae313c2188e7dcb730eb39bc64736f6c63430008000033608060405234801561001057600080fd5b5060405161105738038061105783398101604081905261002f91610059565b60008054336001600160a01b031991821617166001600160a01b0392909216919091179055610087565b60006020828403121561006a578081fd5b81516001600160a01b0381168114610080578182fd5b9392505050565b610fc1806100966000396000f3fe6080604052600436106200005b5760003560e01c8062a71527146200006057806314c44e0914620000905780634b60267314620000b75780638da5cb5b14620000eb578063a8ae13761462000103578063f2fde38b146200011c575b600080fd5b3480156200006d57600080fd5b506200007862000141565b60405162000087919062000554565b60405180910390f35b3480156200009d57600080fd5b50620000a8620001a5565b60405162000087919062000646565b348015620000c457600080fd5b50620000dc620000d6366004620004d9565b620001b0565b60405162000087919062000540565b348015620000f857600080fd5b50620000dc620001db565b6200011a6200011436600462000471565b620001ea565b005b3480156200012957600080fd5b506200011a6200013b36600462000441565b6200034e565b606060018054806020026020016040519081016040528092919081815260200182805480156200019b57602002820191906000526020600020905b81546001600160a01b031681526001909101906020018083116200017c575b5050505050905090565b662386f26fc1000081565b60018181548110620001c157600080fd5b6000918252602090912001546001600160a01b0316905081565b6000546001600160a01b031681565b662386f26fc1000034146200021c5760405162461bcd60e51b8152600401620002139062000605565b60405180910390fd5b600080546040516001600160a01b03909116913480156108fc02929091818181858888f1935050505015801562000257573d6000803e3d6000fd5b50600082826040516200026a90620003aa565b62000277929190620005a3565b604051809103906000f08015801562000294573d6000803e3d6000fd5b5060405163f2fde38b60e01b81529091506001600160a01b0382169063f2fde38b90620002c690339060040162000540565b600060405180830381600087803b158015620002e157600080fd5b505af1158015620002f6573d6000803e3d6000fd5b50506001805480820182556000919091527fb10e2d527612073b26eecdfd717e6a320cf44b4afac2b0732d9fcbe2b7fa0cf60180546001600160a01b0319166001600160a01b03949094169390931790925550505050565b6000546001600160a01b031633146200037b5760405162461bcd60e51b81526004016200021390620005d5565b6001600160a01b03811615620003a757600080546001600160a01b0319166001600160a01b0383161790555b50565b610926806200066683390190565b600082601f830112620003c9578081fd5b813567ffffffffffffffff80821115620003e757620003e76200064f565b604051601f8301601f1916810160200182811182821017156200040e576200040e6200064f565b60405282815284830160200186101562000426578384fd5b82602086016020830137918201602001929092529392505050565b60006020828403121562000453578081fd5b81356001600160a01b03811681146200046a578182fd5b9392505050565b6000806040838503121562000484578081fd5b823567ffffffffffffffff808211156200049c578283fd5b620004aa86838701620003b8565b93506020850135915080821115620004c0578283fd5b50620004cf85828601620003b8565b9150509250929050565b600060208284031215620004eb578081fd5b5035919050565b60008151808452815b818110156200051957602081850181015186830182015201620004fb565b818111156200052b5782602083870101525b50601f01601f19169290920160200192915050565b6001600160a01b0391909116815260200190565b6020808252825182820181905260009190848201906040850190845b81811015620005975783516001600160a01b03168352928401929184019160010162000570565b50909695505050505050565b600060408252620005b86040830185620004f2565b8281036020840152620005cc8185620004f2565b95945050505050565b6020808252601690820152752cb7ba9030b932903737ba103a34329027bbb732b91760511b604082015260600190565b60208082526021908201527f4e65656420746f2073656e64206120666565206f6620302e30312065746865726040820152601760f91b606082015260800190565b90815260200190565b634e487b7160e01b600052604160045260246000fdfe60806040523480156200001157600080fd5b5060405162000926380380620009268339810160408190526200003491620001e1565b600080546001600160a01b0319163317905581516200005b906001906020850190620000b2565b50805162000071906002906020840190620000b2565b508060405160200162000085919062000248565b60408051601f19818403018152919052805160209091012060035550506005805460ff1916905562000303565b828054620000c090620002b0565b90600052602060002090601f016020900481019282620000e457600085556200012f565b82601f10620000ff57805160ff19168380011785556200012f565b828001600101855582156200012f579182015b828111156200012f57825182559160200191906001019062000112565b506200013d92915062000141565b5090565b5b808211156200013d576000815560010162000142565b600082601f83011262000169578081fd5b81516001600160401b0380821115620001865762000186620002ed565b604051601f8301601f191681016020018281118282101715620001ad57620001ad620002ed565b604052828152848301602001861015620001c5578384fd5b620001d88360208301602088016200027d565b95945050505050565b60008060408385031215620001f4578182fd5b82516001600160401b03808211156200020b578384fd5b620002198683870162000158565b935060208501519150808211156200022f578283fd5b506200023e8582860162000158565b9150509250929050565b6000602082528251806020840152620002698160408501602087016200027d565b601f01601f19169190910160400192915050565b60005b838110156200029a57818101518382015260200162000280565b83811115620002aa576000848401525b50505050565b600281046001821680620002c557607f821691505b60208210811415620002e757634e487b7160e01b600052602260045260246000fd5b50919050565b634e487b7160e01b600052604160045260246000fd5b61061380620003136000396000f3fe6080604052600436106100915760003560e01c80638da5cb5b116100595780638da5cb5b146101245780639d506b7f14610146578063de0563c41461015b578063e265a22314610170578063f2fde38b1461019057610091565b806325f7382a146100965780632ddcde1a146100c1578063869dcab5146100cb5780638808b36a146100ed57806389b5efa71461010f575b600080fd5b3480156100a257600080fd5b506100ab6101b0565b6040516100b8919061044e565b60405180910390f35b6100c96101b9565b005b3480156100d757600080fd5b506100e0610280565b6040516100b89190610459565b3480156100f957600080fd5b50610102610286565b6040516100b89190610462565b34801561011b57600080fd5b506100e0610314565b34801561013057600080fd5b5061013961031a565b6040516100b8919061043a565b34801561015257600080fd5b506100c9610329565b34801561016757600080fd5b50610102610353565b34801561017c57600080fd5b506100c961018b366004610422565b610360565b34801561019c57600080fd5b506100c96101ab3660046103f4565b61039c565b60055460ff1681565b6000546001600160a01b03163314156101ed5760405162461bcd60e51b81526004016101e4906104b5565b60405180910390fd5b60055460ff1661020f5760405162461bcd60e51b81526004016101e490610560565b60045434146102305760405162461bcd60e51b81526004016101e4906104f9565b600080546040516001600160a01b03909116913480156108fc02929091818181858888f1935050505015801561026a573d6000803e3d6000fd5b50610274336103c6565b6005805460ff19169055565b60035481565b60018054610293906105a2565b80601f01602080910402602001604051908101604052809291908181526020018280546102bf906105a2565b801561030c5780601f106102e15761010080835404028352916020019161030c565b820191906000526020600020905b8154815290600101906020018083116102ef57829003601f168201915b505050505081565b60045481565b6000546001600160a01b031681565b6000546001600160a01b031633146102745760405162461bcd60e51b81526004016101e490610530565b60028054610293906105a2565b6000546001600160a01b0316331461038a5760405162461bcd60e51b81526004016101e490610530565b6004556005805460ff19166001179055565b6000546001600160a01b031633146103c65760405162461bcd60e51b81526004016101e490610530565b6001600160a01b038116156103f157600080546001600160a01b0319166001600160a01b0383161790555b50565b600060208284031215610405578081fd5b81356001600160a01b038116811461041b578182fd5b9392505050565b600060208284031215610433578081fd5b5035919050565b6001600160a01b0391909116815260200190565b901515815260200190565b90815260200190565b6000602080835283518082850152825b8181101561048e57858101830151858201604001528201610472565b8181111561049f5783604083870101525b50601f01601f1916929092016040019392505050565b60208082526024908201527f4f776e65722063616e206e6f7420627579207468656972206f776e206172747760408201526337b9359760e11b606082015260800190565b6020808252601d908201527f4e65656420746f2073656e64207468652065786163742070726963652e000000604082015260600190565b6020808252601690820152752cb7ba9030b932903737ba103a34329027bbb732b91760511b604082015260600190565b60208082526022908201527f417274776f726b2069732063757272656e746c79206e6f7420666f722073616c604082015261329760f11b606082015260800190565b6002810460018216806105b657607f821691505b602082108114156105d757634e487b7160e01b600052602260045260246000fd5b5091905056fea2646970667358221220082d89027ee2e473a45c718c10bb303bafca225e64bf59ee9d741c30dcb51eb264736f6c63430008000033a2646970667358221220d0c6500b174964ff1f1ba87b75c2dfaa43bdf66e3c79dbdabe3cc66411d173f264736f6c63430008000033",
  "immutableReferences": {},
  "source": "// SPDX-License-Identifier: MIT\npragma solidity >=0.8.0 <0.9.0;\n\nimport \"./Marketplace.sol\";\n\n/// @title Factory for marketplaces\n/// @notice Is used for deploying a marketplace\ncontract MarketplaceCreator {\n    address public marketplace;\n\n    /// @notice Call function for creation\n    constructor() {\n        createMarketplace();\n    }\n\n    /// @notice Create and save marketplace\n    function createMarketplace() private {\n        address newMarketplace = address (\n            new Marketplace(msg.sender)\n        );\n        marketplace = newMarketplace;\n    }\n}",
  "sourcePath": "/projects/BC-Group-3/ethereum/contracts/MarketplaceCreator.sol",
  "compiler": {
    "name": "solc",
    "version": "0.8.0+commit.c7dfd78e.Emscripten.clang"
  },
  "schemaVersion": "3.4.0",
  "updatedAt": "2021-07-04T20:30:34.221Z",
  "networkType": "ethereum",
  "devdoc": {
    "kind": "dev",
    "methods": {},
    "title": "Factory for marketplaces",
    "version": 1
  },
  "userdoc": {
    "kind": "user",
    "methods": {
      "constructor": {
        "notice": "Call function for creation"
      }
    },
    "notice": "Is used for deploying a marketplace",
    "version": 1
  }
}