{
  "contractName": "Marketplace",
  "abi": [
    {
      "inputs": [
        {
          "internalType": "address",
          "name": "_owner",
          "type": "address"
        }
      ],
      "stateMutability": "nonpayable",
      "type": "constructor"
    },
    {
      "inputs": [
        {
          "internalType": "uint256",
          "name": "",
          "type": "uint256"
        }
      ],
      "name": "artworks",
      "outputs": [
        {
          "internalType": "address",
          "name": "",
          "type": "address"
        }
      ],
      "stateMutability": "view",
      "type": "function"
    },
    {
      "inputs": [],
      "name": "owner",
      "outputs": [
        {
          "internalType": "address",
          "name": "",
          "type": "address"
        }
      ],
      "stateMutability": "view",
      "type": "function"
    },
    {
      "inputs": [],
      "name": "registrationFee",
      "outputs": [
        {
          "internalType": "uint256",
          "name": "",
          "type": "uint256"
        }
      ],
      "stateMutability": "view",
      "type": "function"
    },
    {
      "inputs": [
        {
          "internalType": "address",
          "name": "newOwner",
          "type": "address"
        }
      ],
      "name": "transferOwnership",
      "outputs": [],
      "stateMutability": "nonpayable",
      "type": "function"
    },
    {
      "inputs": [
        {
          "internalType": "string",
          "name": "_artworkName",
          "type": "string"
        },
        {
          "internalType": "string",
          "name": "_artworkUrl",
          "type": "string"
        }
      ],
      "name": "registerArtwork",
      "outputs": [],
      "stateMutability": "payable",
      "type": "function"
    },
    {
      "inputs": [],
      "name": "getArtworks",
      "outputs": [
        {
          "internalType": "address[]",
          "name": "",
          "type": "address[]"
        }
      ],
      "stateMutability": "view",
      "type": "function"
    }
  ],
  "bytecode": "0x608060405234801561001057600080fd5b50604051610eea380380610eea83398101604081905261002f91610059565b60008054336001600160a01b031991821617166001600160a01b0392909216919091179055610087565b60006020828403121561006a578081fd5b81516001600160a01b0381168114610080578182fd5b9392505050565b610e54806100966000396000f3fe6080604052600436106100545760003560e01c8062a715271461005957806314c44e09146100845780634b602673146100a65780638da5cb5b146100d3578063a8ae1376146100e8578063f2fde38b146100fd575b600080fd5b34801561006557600080fd5b5061006e61011d565b60405161007b91906104ef565b60405180910390f35b34801561009057600080fd5b5061009961017f565b60405161007b91906105ab565b3480156100b257600080fd5b506100c66100c1366004610478565b61018a565b60405161007b91906104db565b3480156100df57600080fd5b506100c66101b4565b6100fb6100f6366004610417565b6101c3565b005b34801561010957600080fd5b506100fb6101183660046103e9565b61031a565b6060600180548060200260200160405190810160405280929190818152602001828054801561017557602002820191906000526020600020905b81546001600160a01b03168152600190910190602001808311610157575b5050505050905090565b662386f26fc1000081565b6001818154811061019a57600080fd5b6000918252602090912001546001600160a01b0316905081565b6000546001600160a01b031681565b662386f26fc1000034146101f25760405162461bcd60e51b81526004016101e99061056a565b60405180910390fd5b600080546040516001600160a01b03909116913480156108fc02929091818181858888f1935050505015801561022c573d6000803e3d6000fd5b506000828260405161023d9061035b565b61024892919061053c565b604051809103906000f080158015610264573d6000803e3d6000fd5b5060405163f2fde38b60e01b81529091506001600160a01b0382169063f2fde38b906102949033906004016104db565b600060405180830381600087803b1580156102ae57600080fd5b505af11580156102c2573d6000803e3d6000fd5b50506001805480820182556000919091527fb10e2d527612073b26eecdfd717e6a320cf44b4afac2b0732d9fcbe2b7fa0cf60180546001600160a01b0319166001600160a01b03949094169390931790925550505050565b6000546001600160a01b0316331415610358576001600160a01b0381161561035857600080546001600160a01b0319166001600160a01b0383161790555b50565b610854806105cb83390190565b600082601f830112610378578081fd5b813567ffffffffffffffff80821115610393576103936105b4565b604051601f8301601f1916810160200182811182821017156103b7576103b76105b4565b6040528281528483016020018610156103ce578384fd5b82602086016020830137918201602001929092529392505050565b6000602082840312156103fa578081fd5b81356001600160a01b0381168114610410578182fd5b9392505050565b60008060408385031215610429578081fd5b823567ffffffffffffffff80821115610440578283fd5b61044c86838701610368565b93506020850135915080821115610461578283fd5b5061046e85828601610368565b9150509250929050565b600060208284031215610489578081fd5b5035919050565b60008151808452815b818110156104b557602081850181015186830182015201610499565b818111156104c65782602083870101525b50601f01601f19169290920160200192915050565b6001600160a01b0391909116815260200190565b6020808252825182820181905260009190848201906040850190845b818110156105305783516001600160a01b03168352928401929184019160010161050b565b50909695505050505050565b60006040825261054f6040830185610490565b82810360208401526105618185610490565b95945050505050565b60208082526021908201527f4e65656420746f2073656e64206120666565206f6620302e30312065746865726040820152601760f91b606082015260800190565b90815260200190565b634e487b7160e01b600052604160045260246000fdfe608060405234801561001057600080fd5b506040516200085438038062000854833981016040819052610031916101c0565b600080546001600160a01b0319163317905581516100569060019060208501906100a8565b50805161006a9060029060208401906100a8565b508060405160200161007c9190610220565b60408051601f19818403018152919052805160209091012060035550506005805460ff191690556102d4565b8280546100b490610283565b90600052602060002090601f0160209004810192826100d6576000855561011c565b82601f106100ef57805160ff191683800117855561011c565b8280016001018555821561011c579182015b8281111561011c578251825591602001919060010190610101565b5061012892915061012c565b5090565b5b80821115610128576000815560010161012d565b600082601f830112610151578081fd5b81516001600160401b038082111561016b5761016b6102be565b604051601f8301601f19168101602001828111828210171561018f5761018f6102be565b6040528281528483016020018610156101a6578384fd5b6101b7836020830160208801610253565b95945050505050565b600080604083850312156101d2578182fd5b82516001600160401b03808211156101e8578384fd5b6101f486838701610141565b93506020850151915080821115610209578283fd5b5061021685828601610141565b9150509250929050565b600060208252825180602084015261023f816040850160208701610253565b601f01601f19169190910160400192915050565b60005b8381101561026e578181015183820152602001610256565b8381111561027d576000848401525b50505050565b60028104600182168061029757607f821691505b602082108114156102b857634e487b7160e01b600052602260045260246000fd5b50919050565b634e487b7160e01b600052604160045260246000fd5b61057080620002e46000396000f3fe6080604052600436106100865760003560e01c806389b5efa71161005957806389b5efa7146101045780638da5cb5b14610119578063de0563c41461013b578063e265a22314610150578063f2fde38b1461017057610086565b806325f7382a1461008b5780632ddcde1a146100b6578063869dcab5146100c05780638808b36a146100e2575b600080fd5b34801561009757600080fd5b506100a0610190565b6040516100ad91906103db565b60405180910390f35b6100be610199565b005b3480156100cc57600080fd5b506100d5610260565b6040516100ad91906103e6565b3480156100ee57600080fd5b506100f7610266565b6040516100ad91906103ef565b34801561011057600080fd5b506100d56102f4565b34801561012557600080fd5b5061012e6102fa565b6040516100ad91906103c7565b34801561014757600080fd5b506100f7610309565b34801561015c57600080fd5b506100be61016b3660046103af565b610316565b34801561017c57600080fd5b506100be61018b366004610381565b61033f565b60055460ff1681565b6000546001600160a01b03163314156101cd5760405162461bcd60e51b81526004016101c490610442565b60405180910390fd5b60055460ff166101ef5760405162461bcd60e51b81526004016101c4906104bd565b60045434146102105760405162461bcd60e51b81526004016101c490610486565b600080546040516001600160a01b03909116913480156108fc02929091818181858888f1935050505015801561024a573d6000803e3d6000fd5b506102543361033f565b6005805460ff19169055565b60035481565b60018054610273906104ff565b80601f016020809104026020016040519081016040528092919081815260200182805461029f906104ff565b80156102ec5780601f106102c1576101008083540402835291602001916102ec565b820191906000526020600020905b8154815290600101906020018083116102cf57829003601f168201915b505050505081565b60045481565b6000546001600160a01b031681565b60028054610273906104ff565b6000546001600160a01b031633141561033c5760048190556005805460ff191660011790555b50565b6000546001600160a01b031633141561033c576001600160a01b0381161561033c57600080546001600160a01b0383166001600160a01b031990911617905550565b600060208284031215610392578081fd5b81356001600160a01b03811681146103a8578182fd5b9392505050565b6000602082840312156103c0578081fd5b5035919050565b6001600160a01b0391909116815260200190565b901515815260200190565b90815260200190565b6000602080835283518082850152825b8181101561041b578581018301518582016040015282016103ff565b8181111561042c5783604083870101525b50601f01601f1916929092016040019392505050565b60208082526024908201527f4f776e65722063616e206e6f7420627579207468656972206f776e206172747760408201526337b9359760e11b606082015260800190565b6020808252601d908201527f4e65656420746f2073656e64207468652065786163742070726963652e000000604082015260600190565b60208082526022908201527f417274776f726b2069732063757272656e746c79206e6f7420666f722073616c604082015261329760f11b606082015260800190565b60028104600182168061051357607f821691505b6020821081141561053457634e487b7160e01b600052602260045260246000fd5b5091905056fea2646970667358221220c4aef4d02c0f6886080adcd50dc900f35bb6bd43daa03781ea5769ff18a976fb64736f6c63430008000033a26469706673582212203768187d425fbb9a2b4c991932cbc5fc66e62d040116fb0040c9d30a4681f22564736f6c63430008000033",
  "immutableReferences": {},
  "source": "// SPDX-License-Identifier: MIT\npragma solidity >=0.8.0 <0.9.0;\n\nimport \"./Artwork.sol\";\nimport \"./Ownable.sol\";\n\ncontract Marketplace is Ownable{\n    address[] public artworks;\n    uint constant public registrationFee = 0.01 ether;\n\n    constructor(address _owner) {\n        owner = _owner;\n    }\n\n    function registerArtwork(string memory _artworkName, string memory _artworkUrl) public payable {\n        require(msg.value == registrationFee, 'Need to send a fee of 0.01 ether.');\n\n        payable(owner).transfer(msg.value);\n\n        Artwork artwork = new Artwork(_artworkName, _artworkUrl);\n        artwork.transferOwnership(msg.sender);\n        artworks.push(address(artwork));\n    }\n\n    function getArtworks() public view returns(address[] memory) {\n        return artworks;\n    }\n}",
  "sourcePath": "/projects/BC-Group-3/ethereum/contracts/Marketplace.sol",
  "compiler": {
    "name": "solc",
    "version": "0.8.0+commit.c7dfd78e.Emscripten.clang"
  },
  "schemaVersion": "3.4.0",
  "updatedAt": "2021-07-03T18:36:01.421Z",
  "devdoc": {
    "kind": "dev",
    "methods": {},
    "version": 1
  },
  "userdoc": {
    "kind": "user",
    "methods": {},
    "version": 1
  }
}