{
  "contractName": "Ownable",
  "abi": [
    {
      "constant": true,
      "inputs": [],
      "name": "contentHash",
      "outputs": [
        {
          "internalType": "string",
          "name": "",
          "type": "string"
        }
      ],
      "payable": false,
      "stateMutability": "view",
      "type": "function"
    },
    {
      "constant": true,
      "inputs": [],
      "name": "forSale",
      "outputs": [
        {
          "internalType": "bool",
          "name": "",
          "type": "bool"
        }
      ],
      "payable": false,
      "stateMutability": "view",
      "type": "function"
    },
    {
      "constant": true,
      "inputs": [],
      "name": "marketplaceAddress",
      "outputs": [
        {
          "internalType": "address",
          "name": "",
          "type": "address"
        }
      ],
      "payable": false,
      "stateMutability": "view",
      "type": "function"
    },
    {
      "constant": true,
      "inputs": [],
      "name": "name",
      "outputs": [
        {
          "internalType": "string",
          "name": "",
          "type": "string"
        }
      ],
      "payable": false,
      "stateMutability": "view",
      "type": "function"
    },
    {
      "constant": true,
      "inputs": [],
      "name": "owner",
      "outputs": [
        {
          "internalType": "address",
          "name": "",
          "type": "address"
        }
      ],
      "payable": false,
      "stateMutability": "view",
      "type": "function"
    },
    {
      "constant": true,
      "inputs": [],
      "name": "price",
      "outputs": [
        {
          "internalType": "uint256",
          "name": "",
          "type": "uint256"
        }
      ],
      "payable": false,
      "stateMutability": "view",
      "type": "function"
    },
    {
      "constant": false,
      "inputs": [],
      "name": "transferOwnership",
      "outputs": [],
      "payable": false,
      "stateMutability": "nonpayable",
      "type": "function"
    },
    {
      "constant": false,
      "inputs": [
        {
          "internalType": "uint256",
          "name": "newPrice",
          "type": "uint256"
        }
      ],
      "name": "setPrice",
      "outputs": [],
      "payable": false,
      "stateMutability": "nonpayable",
      "type": "function"
    },
    {
      "constant": false,
      "inputs": [
        {
          "internalType": "uint256",
          "name": "_price",
          "type": "uint256"
        }
      ],
      "name": "declareForSale",
      "outputs": [],
      "payable": false,
      "stateMutability": "nonpayable",
      "type": "function"
    },
    {
      "constant": false,
      "inputs": [],
      "name": "buyOwnable",
      "outputs": [],
      "payable": false,
      "stateMutability": "nonpayable",
      "type": "function"
    },
    {
      "constant": false,
      "inputs": [],
      "name": "purchaseProduct",
      "outputs": [
        {
          "internalType": "bool",
          "name": "",
          "type": "bool"
        }
      ],
      "payable": true,
      "stateMutability": "payable",
      "type": "function"
    }
  ],
  "bytecode": "0x608060405234801561001057600080fd5b50610511806100206000396000f3fe60806040526004361061009c5760003560e01c8063646c2e3311610064578063646c2e331461019d578063880ad0af146101b25780638da5cb5b146101c757806391b7f5ed146101f8578063a035b1fe14610222578063daa17f49146102495761009c565b806306fdde03146100a15780632a304dc61461012b5780633fd02423146101425780633fd626271461015e578063466ccac014610188575b600080fd5b3480156100ad57600080fd5b506100b661025e565b6040805160208082528351818301528351919283929083019185019080838360005b838110156100f05781810151838201526020016100d8565b50505050905090810190601f16801561011d5780820380516001836020036101000a031916815260200191505b509250505060405180910390f35b34801561013757600080fd5b506101406102e9565b005b61014a6103b5565b604080519115158252519081900360200190f35b34801561016a57600080fd5b506101406004803603602081101561018157600080fd5b503561040f565b34801561019457600080fd5b5061014a61043c565b3480156101a957600080fd5b506100b6610445565b3480156101be57600080fd5b5061014061049f565b3480156101d357600080fd5b506101dc6104b3565b604080516001600160a01b039092168252519081900360200190f35b34801561020457600080fd5b506101406004803603602081101561021b57600080fd5b50356104c2565b34801561022e57600080fd5b506102376104c7565b60408051918252519081900360200190f35b34801561025557600080fd5b506101dc6104cd565b6002805460408051602060018416156101000260001901909316849004601f810184900484028201840190925281815292918301828280156102e15780601f106102b6576101008083540402835291602001916102e1565b820191906000526020600020905b8154815290600101906020018083116102c457829003601f168201915b505050505081565b6000546001600160a01b031633141561030157600080fd5b6006546004805460408051634d7b9bd560e01b815233938101939093526024830191909152516001600160a01b0390921691634d7b9bd591604480820192602092909190829003018186803b15801561035957600080fd5b505afa15801561036d573d6000803e3d6000fd5b505050506040513d602081101561038357600080fd5b505161038e57600080fd5b6103966103b5565b5061039f61049f565b6003805460ff191690556103b360006104c2565b565b60006004543410156103c657600080fd5b60045434111561040957600454604051349190910390339082156108fc029083906000818181858888f19350505050158015610406573d6000803e3d6000fd5b50505b50600190565b6000546001600160a01b03163314156104395761042b816104c2565b6003805460ff191660011790555b50565b60035460ff1681565b60018054604080516020600284861615610100026000190190941693909304601f810184900484028201840190925281815292918301828280156102e15780601f106102b6576101008083540402835291602001916102e1565b600080546001600160a01b03191633179055565b6000546001600160a01b031681565b600455565b60045481565b6005546001600160a01b03168156fea265627a7a72315820701e28c86b7f3db6bbf5e5491ee2213dc6ccf30948e457355c5c59b25f2287bc64736f6c63430005100032",
  "source": "// SPDX-License-Identifier: MIT\npragma solidity >=0.4.22 <0.9.0;\n\nimport \"./Marketplace.sol\";\n\ncontract Ownable {\n  \n  address public owner;\n  string public contentHash;\n  string public name;\n  bool public forSale;\n  uint public price;\n  address public marketplaceAddress;\n  Marketplace marketplace;\n\n  modifier onlyOwner() {\n    if (msg.sender == owner)\n      _;\n  }\n\n  function transferOwnership() public {\n    owner = msg.sender;\n  }\n\n  function setPrice(uint newPrice) public {\n    price = newPrice;\n  }\n\n  //declares ownable item for sale\n  function declareForSale(uint _price) public {\n      if (msg.sender == owner){\n          setPrice(_price);\n          forSale = true;\n      }\n  }\n\n  //Buyer buys ownable\n  function buyOwnable() public {\n      if(msg.sender == owner){\n          revert();\n      } else {\n          if (!marketplace.checkBalance(msg.sender, price)){\n              revert();  \n          } else {\n              purchaseProduct();\n              transferOwnership();\n              forSale = false;\n              setPrice(0);\n          }\n      }\n  }\n\n  function purchaseProduct() payable public returns (bool) {\n\t  require(msg.value >= price);\n\n\t\t// If amount sent is too large, refund the difference\n\t\tif (msg.value > price) {\n\t\t\tuint refund = msg.value - price;\n\t\t\tmsg.sender.transfer(refund);\n\t\t}\n\t\treturn true;\n\t}\n}",
  "sourcePath": "/projects/BC-Group-3/ethereum/contracts/Ownable.sol",
  "compiler": {
    "name": "solc",
    "version": "0.5.16+commit.9c3226ce.Emscripten.clang"
  },
  "schemaVersion": "3.4.0",
  "updatedAt": "2021-07-01T08:48:30.553Z",
  "devdoc": {
    "methods": {}
  },
  "userdoc": {
    "methods": {}
  }
}