{
  "contractName": "MarketplaceCreator",
  "abi": [
    {
      "constant": true,
      "inputs": [
        {
          "internalType": "uint256",
          "name": "",
          "type": "uint256"
        }
      ],
      "name": "marketplaces",
      "outputs": [
        {
          "internalType": "address",
          "name": "",
          "type": "address"
        }
      ],
      "payable": false,
      "stateMutability": "view",
      "type": "function"
    },
    {
      "constant": false,
      "inputs": [],
      "name": "createMarketplace",
      "outputs": [],
      "payable": false,
      "stateMutability": "nonpayable",
      "type": "function"
    },
    {
      "constant": true,
      "inputs": [],
      "name": "getDeployedMarketplaces",
      "outputs": [
        {
          "internalType": "address[]",
          "name": "",
          "type": "address[]"
        }
      ],
      "payable": false,
      "stateMutability": "view",
      "type": "function"
    }
  ],
  "bytecode": "0x608060405234801561001057600080fd5b506119d5806100206000396000f3fe608060405234801561001057600080fd5b50600436106100415760003560e01c80632b64deec1461004657806357d2ced6146100b4578063cb83729614610113575b600080fd5b6100726004803603602081101561005c57600080fd5b810190808035906020019092919050505061011d565b604051808273ffffffffffffffffffffffffffffffffffffffff1673ffffffffffffffffffffffffffffffffffffffff16815260200191505060405180910390f35b6100bc610159565b6040518080602001828103825283818151815260200191508051906020019060200280838360005b838110156100ff5780820151818401526020810190506100e4565b505050509050019250505060405180910390f35b61011b6101e7565b005b6000818154811061012a57fe5b906000526020600020016000915054906101000a900473ffffffffffffffffffffffffffffffffffffffff1681565b606060008054806020026020016040519081016040528092919081815260200182805480156101dd57602002820191906000526020600020905b8160009054906101000a900473ffffffffffffffffffffffffffffffffffffffff1673ffffffffffffffffffffffffffffffffffffffff1681526020019060010190808311610193575b5050505050905090565b6000336040516101f6906102b4565b808273ffffffffffffffffffffffffffffffffffffffff1673ffffffffffffffffffffffffffffffffffffffff168152602001915050604051809103906000f080158015610248573d6000803e3d6000fd5b50905060008190806001815401808255809150509060018203906000526020600020016000909192909190916101000a81548173ffffffffffffffffffffffffffffffffffffffff021916908373ffffffffffffffffffffffffffffffffffffffff1602179055505050565b6116df806102c28339019056fe608060405234801561001057600080fd5b506040516116df3803806116df8339818101604052602081101561003357600080fd5b8101908080519060200190929190505050806000806101000a81548173ffffffffffffffffffffffffffffffffffffffff021916908373ffffffffffffffffffffffffffffffffffffffff1602179055505061164b806100946000396000f3fe608060405234801561001057600080fd5b506004361061004c5760003560e01c80634d7b9bd5146100515780638da5cb5b146100b7578063efb2998314610101578063fe801f8b14610320575b600080fd5b61009d6004803603604081101561006757600080fd5b81019080803573ffffffffffffffffffffffffffffffffffffffff1690602001909291908035906020019092919050505061038e565b604051808215151515815260200191505060405180910390f35b6100bf6103c2565b604051808273ffffffffffffffffffffffffffffffffffffffff1673ffffffffffffffffffffffffffffffffffffffff16815260200191505060405180910390f35b61031e600480360360c081101561011757600080fd5b810190808035906020019064010000000081111561013457600080fd5b82018360208201111561014657600080fd5b8035906020019184600183028401116401000000008311171561016857600080fd5b91908080601f016020809104026020016040519081016040528093929190818152602001838380828437600081840152601f19601f82011690508083019250505050505050919291929080359060200190929190803515159060200190929190803590602001906401000000008111156101e157600080fd5b8201836020820111156101f357600080fd5b8035906020019184600183028401116401000000008311171561021557600080fd5b91908080601f016020809104026020016040519081016040528093929190818152602001838380828437600081840152601f19601f8201169050808301925050505050505091929192908035906020019064010000000081111561027857600080fd5b82018360208201111561028a57600080fd5b803590602001918460018302840111640100000000831117156102ac57600080fd5b91908080601f016020809104026020016040519081016040528093929190818152602001838380828437600081840152601f19601f820116905080830192505050505050509192919290803573ffffffffffffffffffffffffffffffffffffffff1690602001909291905050506103e7565b005b61034c6004803603602081101561033657600080fd5b8101908080359060200190929190505050610620565b604051808273ffffffffffffffffffffffffffffffffffffffff1673ffffffffffffffffffffffffffffffffffffffff16815260200191505060405180910390f35b60008273ffffffffffffffffffffffffffffffffffffffff163182116103b757600190506103bc565b600090505b92915050565b6000809054906101000a900473ffffffffffffffffffffffffffffffffffffffff1681565b600086868686868630306040516103fd9061077a565b80806020018981526020018815151515815260200180602001806020018773ffffffffffffffffffffffffffffffffffffffff1673ffffffffffffffffffffffffffffffffffffffff1681526020018673ffffffffffffffffffffffffffffffffffffffff1673ffffffffffffffffffffffffffffffffffffffff1681526020018573ffffffffffffffffffffffffffffffffffffffff1673ffffffffffffffffffffffffffffffffffffffff16815260200184810384528c818151815260200191508051906020019080838360005b838110156104e85780820151818401526020810190506104cd565b50505050905090810190601f1680156105155780820380516001836020036101000a031916815260200191505b50848103835289818151815260200191508051906020019080838360005b8381101561054e578082015181840152602081019050610533565b50505050905090810190601f16801561057b5780820380516001836020036101000a031916815260200191505b50848103825288818151815260200191508051906020019080838360005b838110156105b4578082015181840152602081019050610599565b50505050905090810190601f1680156105e15780820380516001836020036101000a031916815260200191505b509b505050505050505050505050604051809103906000f08015801561060b573d6000803e3d6000fd5b5090506106178161065c565b50505050505050565b6001818154811061062d57fe5b906000526020600020016000915054906101000a900473ffffffffffffffffffffffffffffffffffffffff1681565b8073ffffffffffffffffffffffffffffffffffffffff16638da5cb5b6040518163ffffffff1660e01b815260040160206040518083038186803b1580156106a257600080fd5b505afa1580156106b6573d6000803e3d6000fd5b505050506040513d60208110156106cc57600080fd5b810190808051906020019092919050505073ffffffffffffffffffffffffffffffffffffffff163373ffffffffffffffffffffffffffffffffffffffff1614156107775760018190806001815401808255809150509060018203906000526020600020016000909192909190916101000a81548173ffffffffffffffffffffffffffffffffffffffff021916908373ffffffffffffffffffffffffffffffffffffffff160217905550505b50565b610e8f806107888339019056fe60806040523480156200001157600080fd5b5060405162000e8f38038062000e8f83398181016040526101008110156200003857600080fd5b81019080805160405193929190846401000000008211156200005957600080fd5b838201915060208201858111156200007057600080fd5b82518660018202830111640100000000821117156200008e57600080fd5b8083526020830192505050908051906020019080838360005b83811015620000c4578082015181840152602081019050620000a7565b50505050905090810190601f168015620000f25780820380516001836020036101000a031916815260200191505b506040526020018051906020019092919080519060200190929190805160405193929190846401000000008211156200012a57600080fd5b838201915060208201858111156200014157600080fd5b82518660018202830111640100000000821117156200015f57600080fd5b8083526020830192505050908051906020019080838360005b838110156200019557808201518184015260208101905062000178565b50505050905090810190601f168015620001c35780820380516001836020036101000a031916815260200191505b5060405260200180516040519392919084640100000000821115620001e757600080fd5b83820191506020820185811115620001fe57600080fd5b82518660018202830111640100000000821117156200021c57600080fd5b8083526020830192505050908051906020019080838360005b838110156200025257808201518184015260208101905062000235565b50505050905090810190601f168015620002805780820380516001836020036101000a031916815260200191505b506040526020018051906020019092919080519060200190929190805190602001909291905050508760029080519060200190620002c092919062000425565b508660048190555085600360006101000a81548160ff021916908315150217905550336000806101000a81548173ffffffffffffffffffffffffffffffffffffffff021916908373ffffffffffffffffffffffffffffffffffffffff16021790555084600190805190602001906200033a92919062000425565b5083600790805190602001906200035392919062000425565b5082600860006101000a81548173ffffffffffffffffffffffffffffffffffffffff021916908373ffffffffffffffffffffffffffffffffffffffff16021790555081600560006101000a81548173ffffffffffffffffffffffffffffffffffffffff021916908373ffffffffffffffffffffffffffffffffffffffff16021790555080600660006101000a81548173ffffffffffffffffffffffffffffffffffffffff021916908373ffffffffffffffffffffffffffffffffffffffff1602179055505050505050505050620004d4565b828054600181600116156101000203166002900490600052602060002090601f016020900481019282601f106200046857805160ff191683800117855562000499565b8280016001018555821562000499579182015b82811115620004985782518255916020019190600101906200047b565b5b509050620004a89190620004ac565b5090565b620004d191905b80821115620004cd576000816000905550600101620004b3565b5090565b90565b6109ab80620004e46000396000f3fe60806040526004361061009c5760003560e01c80638da5cb5b116100645780638da5cb5b1461024d57806391b7f5ed146102a4578063a035b1fe146102df578063a6c3e6b91461030a578063aba8315014610361578063daa17f49146103f15761009c565b806306fdde03146100a15780632a304dc6146101315780633fd6262714610153578063466ccac01461018e578063646c2e33146101bd575b600080fd5b3480156100ad57600080fd5b506100b6610448565b6040518080602001828103825283818151815260200191508051906020019080838360005b838110156100f65780820151818401526020810190506100db565b50505050905090810190601f1680156101235780820380516001836020036101000a031916815260200191505b509250505060405180910390f35b6101396104e6565b604051808215151515815260200191505060405180910390f35b34801561015f57600080fd5b5061018c6004803603602081101561017657600080fd5b81019080803590602001909291905050506106e7565b005b34801561019a57600080fd5b506101a3610764565b604051808215151515815260200191505060405180910390f35b3480156101c957600080fd5b506101d2610777565b6040518080602001828103825283818151815260200191508051906020019080838360005b838110156102125780820151818401526020810190506101f7565b50505050905090810190601f16801561023f5780820380516001836020036101000a031916815260200191505b509250505060405180910390f35b34801561025957600080fd5b50610262610815565b604051808273ffffffffffffffffffffffffffffffffffffffff1673ffffffffffffffffffffffffffffffffffffffff16815260200191505060405180910390f35b3480156102b057600080fd5b506102dd600480360360208110156102c757600080fd5b810190808035906020019092919050505061083a565b005b3480156102eb57600080fd5b506102f4610844565b6040518082815260200191505060405180910390f35b34801561031657600080fd5b5061031f61084a565b604051808273ffffffffffffffffffffffffffffffffffffffff1673ffffffffffffffffffffffffffffffffffffffff16815260200191505060405180910390f35b34801561036d57600080fd5b50610376610870565b6040518080602001828103825283818151815260200191508051906020019080838360005b838110156103b657808201518184015260208101905061039b565b50505050905090810190601f1680156103e35780820380516001836020036101000a031916815260200191505b509250505060405180910390f35b3480156103fd57600080fd5b5061040661090e565b604051808273ffffffffffffffffffffffffffffffffffffffff1673ffffffffffffffffffffffffffffffffffffffff16815260200191505060405180910390f35b60028054600181600116156101000203166002900480601f0160208091040260200160405190810160405280929190818152602001828054600181600116156101000203166002900480156104de5780601f106104b3576101008083540402835291602001916104de565b820191906000526020600020905b8154815290600101906020018083116104c157829003601f168201915b505050505081565b60008060009054906101000a900473ffffffffffffffffffffffffffffffffffffffff1673ffffffffffffffffffffffffffffffffffffffff163373ffffffffffffffffffffffffffffffffffffffff16141561054257600080fd5b600360009054906101000a900460ff1661055b57600080fd5b600660009054906101000a900473ffffffffffffffffffffffffffffffffffffffff1673ffffffffffffffffffffffffffffffffffffffff16634d7b9bd5336004546040518363ffffffff1660e01b8152600401808373ffffffffffffffffffffffffffffffffffffffff1673ffffffffffffffffffffffffffffffffffffffff1681526020018281526020019250505060206040518083038186803b15801561060457600080fd5b505afa158015610618573d6000803e3d6000fd5b505050506040513d602081101561062e57600080fd5b810190808051906020019092919050505061064857600080fd5b6000600360006101000a81548160ff02191690831515021790555060045434101561067257600080fd5b6004543411156106ce576000600454340390503373ffffffffffffffffffffffffffffffffffffffff166108fc829081150290604051600060405180830381858888f193505050501580156106cb573d6000803e3d6000fd5b50505b6106d6610934565b6106e0600061083a565b6001905090565b6000809054906101000a900473ffffffffffffffffffffffffffffffffffffffff1673ffffffffffffffffffffffffffffffffffffffff163373ffffffffffffffffffffffffffffffffffffffff161415610761576107458161083a565b6001600360006101000a81548160ff0219169083151502179055505b50565b600360009054906101000a900460ff1681565b60018054600181600116156101000203166002900480601f01602080910402602001604051908101604052809291908181526020018280546001816001161561010002031660029004801561080d5780601f106107e25761010080835404028352916020019161080d565b820191906000526020600020905b8154815290600101906020018083116107f057829003601f168201915b505050505081565b6000809054906101000a900473ffffffffffffffffffffffffffffffffffffffff1681565b8060048190555050565b60045481565b600860009054906101000a900473ffffffffffffffffffffffffffffffffffffffff1681565b60078054600181600116156101000203166002900480601f0160208091040260200160405190810160405280929190818152602001828054600181600116156101000203166002900480156109065780601f106108db57610100808354040283529160200191610906565b820191906000526020600020905b8154815290600101906020018083116108e957829003601f168201915b505050505081565b600560009054906101000a900473ffffffffffffffffffffffffffffffffffffffff1681565b336000806101000a81548173ffffffffffffffffffffffffffffffffffffffff021916908373ffffffffffffffffffffffffffffffffffffffff16021790555056fea265627a7a7231582036120fbabc1c8fb4694b56f18601de9c24a907df0cbbac5f1c1d739aec3626c564736f6c63430005100032a265627a7a723158209c2f2f0f13aa24a94e99ce9debce3756c3f35d601a509fcfb53bc4a6f7bdc55264736f6c63430005100032a265627a7a723158208208996190bfdcadda4803d85b937f4132403ccc95a9afa4a64e6e1f153dc8b964736f6c63430005100032",
  "source": "// SPDX-License-Identifier: MIT\npragma solidity >=0.4.22 <0.9.0;\n\nimport \"./Marketplace.sol\";\n\ncontract MarketplaceCreator {\n    address[] public marketplaces;\n\n    function createMarketplace() public {\n        address newMarketplace = address (\n            new Marketplace(msg.sender)\n        );\n        marketplaces.push(newMarketplace);\n    }\n\n    function getDeployedMarketplaces() public view returns( address[] memory) { return marketplaces;} \n}",
  "sourcePath": "/projects/BC-Group-3/contracts/MarketplaceCreator.sol",
  "compiler": {
    "name": "solc",
    "version": "0.5.16+commit.9c3226ce.Emscripten.clang"
  },
  "schemaVersion": "3.4.0",
  "updatedAt": "2021-07-01T09:13:40.806Z",
  "devdoc": {
    "methods": {}
  },
  "userdoc": {
    "methods": {}
  }
}