{
  "contractName": "MarketplaceCreator",
  "abi": [
    {
      "constant": true,
      "inputs": [
        {
          "internalType": "uint256",
          "name": "",
          "type": "uint256"
        }
      ],
      "name": "marketplaces",
      "outputs": [
        {
          "internalType": "address",
          "name": "",
          "type": "address"
        }
      ],
      "payable": false,
      "stateMutability": "view",
      "type": "function"
    },
    {
      "constant": false,
      "inputs": [
        {
          "internalType": "address",
          "name": "paymentAddressA",
          "type": "address"
        },
        {
          "internalType": "int256",
          "name": "currentBalanceA",
          "type": "int256"
        },
        {
          "internalType": "address",
          "name": "paymentAddressB",
          "type": "address"
        },
        {
          "internalType": "int256",
          "name": "currentBalanceB",
          "type": "int256"
        }
      ],
      "name": "createMarketplace",
      "outputs": [],
      "payable": false,
      "stateMutability": "nonpayable",
      "type": "function"
    },
    {
      "constant": true,
      "inputs": [],
      "name": "getDeployedMarketplaces",
      "outputs": [
        {
          "internalType": "address[]",
          "name": "",
          "type": "address[]"
        }
      ],
      "payable": false,
      "stateMutability": "view",
      "type": "function"
    }
  ],
  "bytecode": "0x608060405234801561001057600080fd5b506113d3806100206000396000f3fe608060405234801561001057600080fd5b50600436106100415760003560e01c80632b64deec1461004657806357d2ced6146100b45780637344a9b914610113575b600080fd5b6100726004803603602081101561005c57600080fd5b810190808035906020019092919050505061018b565b604051808273ffffffffffffffffffffffffffffffffffffffff1673ffffffffffffffffffffffffffffffffffffffff16815260200191505060405180910390f35b6100bc6101c7565b6040518080602001828103825283818151815260200191508051906020019060200280838360005b838110156100ff5780820151818401526020810190506100e4565b505050509050019250505060405180910390f35b6101896004803603608081101561012957600080fd5b81019080803573ffffffffffffffffffffffffffffffffffffffff16906020019092919080359060200190929190803573ffffffffffffffffffffffffffffffffffffffff16906020019092919080359060200190929190505050610255565b005b6000818154811061019857fe5b906000526020600020016000915054906101000a900473ffffffffffffffffffffffffffffffffffffffff1681565b6060600080548060200260200160405190810160405280929190818152602001828054801561024b57602002820191906000526020600020905b8160009054906101000a900473ffffffffffffffffffffffffffffffffffffffff1673ffffffffffffffffffffffffffffffffffffffff1681526020019060010190808311610201575b5050505050905090565b6000848484846040516102679061036a565b808573ffffffffffffffffffffffffffffffffffffffff1673ffffffffffffffffffffffffffffffffffffffff1681526020018481526020018373ffffffffffffffffffffffffffffffffffffffff1673ffffffffffffffffffffffffffffffffffffffff168152602001828152602001945050505050604051809103906000f0801580156102fa573d6000803e3d6000fd5b50905060008190806001815401808255809150509060018203906000526020600020016000909192909190916101000a81548173ffffffffffffffffffffffffffffffffffffffff021916908373ffffffffffffffffffffffffffffffffffffffff160217905550505050505050565b611027806103788339019056fe608060405234801561001057600080fd5b506040516110273803806110278339818101604052608081101561003357600080fd5b8101908080519060200190929190805190602001909291908051906020019092919080519060200190929190505050336000806101000a81548173ffffffffffffffffffffffffffffffffffffffff021916908373ffffffffffffffffffffffffffffffffffffffff1602179055508173ffffffffffffffffffffffffffffffffffffffff168473ffffffffffffffffffffffffffffffffffffffff1614156100db57600080fd5b83600160000160006101000a81548173ffffffffffffffffffffffffffffffffffffffff021916908373ffffffffffffffffffffffffffffffffffffffff16021790555082600180018190555081600360000160006101000a81548173ffffffffffffffffffffffffffffffffffffffff021916908373ffffffffffffffffffffffffffffffffffffffff1602179055508060036001018190555050505050610e9e806101896000396000f3fe608060405234801561001057600080fd5b50600436106100575760003560e01c806313e893a81461005c57806333f2f2e7146100c25780638da5cb5b14610130578063c4131ce41461017a578063f2fde38b1461023f575b600080fd5b6100a86004803603604081101561007257600080fd5b81019080803573ffffffffffffffffffffffffffffffffffffffff16906020019092919080359060200190929190505050610283565b604051808215151515815260200191505060405180910390f35b61012e600480360360608110156100d857600080fd5b81019080803573ffffffffffffffffffffffffffffffffffffffff169060200190929190803573ffffffffffffffffffffffffffffffffffffffff16906020019092919080359060200190929190505050610375565b005b610138610453565b604051808273ffffffffffffffffffffffffffffffffffffffff1673ffffffffffffffffffffffffffffffffffffffff16815260200191505060405180910390f35b61023d6004803603604081101561019057600080fd5b81019080803590602001906401000000008111156101ad57600080fd5b8201836020820111156101bf57600080fd5b803590602001918460018302840111640100000000831117156101e157600080fd5b91908080601f016020809104026020016040519081016040528093929190818152602001838380828437600081840152601f19601f82011690508083019250505050505050919291929080359060200190929190505050610478565b005b6102816004803603602081101561025557600080fd5b81019080803573ffffffffffffffffffffffffffffffffffffffff16906020019092919050505061061b565b005b6000600160000160009054906101000a900473ffffffffffffffffffffffffffffffffffffffff1673ffffffffffffffffffffffffffffffffffffffff168373ffffffffffffffffffffffffffffffffffffffff161480156102e9575060018001548213155b156102f7576001905061036f565b600360000160009054906101000a900473ffffffffffffffffffffffffffffffffffffffff1673ffffffffffffffffffffffffffffffffffffffff168373ffffffffffffffffffffffffffffffffffffffff1614801561035c57506003600101548213155b1561036a576001905061036f565b600090505b92915050565b600160000160009054906101000a900473ffffffffffffffffffffffffffffffffffffffff1673ffffffffffffffffffffffffffffffffffffffff168273ffffffffffffffffffffffffffffffffffffffff1614156103e1578060018001600082825401925050819055505b600360000160009054906101000a900473ffffffffffffffffffffffffffffffffffffffff1673ffffffffffffffffffffffffffffffffffffffff168373ffffffffffffffffffffffffffffffffffffffff16141561044e57806003600101600082825403925050819055505b505050565b6000809054906101000a900473ffffffffffffffffffffffffffffffffffffffff1681565b6000809054906101000a900473ffffffffffffffffffffffffffffffffffffffff1673ffffffffffffffffffffffffffffffffffffffff163373ffffffffffffffffffffffffffffffffffffffff16141561061757818133306040516104dd906106e9565b80806020018581526020018473ffffffffffffffffffffffffffffffffffffffff1673ffffffffffffffffffffffffffffffffffffffff1681526020018373ffffffffffffffffffffffffffffffffffffffff1673ffffffffffffffffffffffffffffffffffffffff168152602001828103825286818151815260200191508051906020019080838360005b83811015610584578082015181840152602081019050610569565b50505050905090810190601f1680156105b15780820380516001836020036101000a031916815260200191505b5095505050505050604051809103906000f0801580156105d5573d6000803e3d6000fd5b50600560006101000a81548173ffffffffffffffffffffffffffffffffffffffff021916908373ffffffffffffffffffffffffffffffffffffffff1602179055505b5050565b6000809054906101000a900473ffffffffffffffffffffffffffffffffffffffff1673ffffffffffffffffffffffffffffffffffffffff163373ffffffffffffffffffffffffffffffffffffffff1614156106e657600073ffffffffffffffffffffffffffffffffffffffff168173ffffffffffffffffffffffffffffffffffffffff16146106e557806000806101000a81548173ffffffffffffffffffffffffffffffffffffffff021916908373ffffffffffffffffffffffffffffffffffffffff1602179055505b5b50565b610773806106f78339019056fe608060405234801561001057600080fd5b506040516107733803806107738339818101604052608081101561003357600080fd5b810190808051604051939291908464010000000082111561005357600080fd5b8382019150602082018581111561006957600080fd5b825186600182028301116401000000008211171561008657600080fd5b8083526020830192505050908051906020019080838360005b838110156100ba57808201518184015260208101905061009f565b50505050905090810190601f1680156100e75780820380516001836020036101000a031916815260200191505b5060405260200180519060200190929190805190602001909291908051906020019092919050505081600060016101000a81548173ffffffffffffffffffffffffffffffffffffffff021916908373ffffffffffffffffffffffffffffffffffffffff16021790555080600160006101000a81548173ffffffffffffffffffffffffffffffffffffffff021916908373ffffffffffffffffffffffffffffffffffffffff16021790555083600290805190602001906101a79291906101b8565b50826003819055505050505061025d565b828054600181600116156101000203166002900490600052602060002090601f016020900481019282601f106101f957805160ff1916838001178555610227565b82800160010185558215610227579182015b8281111561022657825182559160200191906001019061020b565b5b5090506102349190610238565b5090565b61025a91905b8082111561025657600081600090555060010161023e565b5090565b90565b6105078061026c6000396000f3fe608060405234801561001057600080fd5b50600436106100575760003560e01c806306fdde031461005c57806307987270146100df5780632ddcde1a14610129578063a035b1fe14610133578063daa17f4914610151575b600080fd5b61006461019b565b6040518080602001828103825283818151815260200191508051906020019080838360005b838110156100a4578082015181840152602081019050610089565b50505050905090810190601f1680156100d15780820380516001836020036101000a031916815260200191505b509250505060405180910390f35b6100e7610239565b604051808273ffffffffffffffffffffffffffffffffffffffff1673ffffffffffffffffffffffffffffffffffffffff16815260200191505060405180910390f35b61013161025f565b005b61013b6104a6565b6040518082815260200191505060405180910390f35b6101596104ac565b604051808273ffffffffffffffffffffffffffffffffffffffff1673ffffffffffffffffffffffffffffffffffffffff16815260200191505060405180910390f35b60028054600181600116156101000203166002900480601f0160208091040260200160405190810160405280929190818152602001828054600181600116156101000203166002900480156102315780601f1061020657610100808354040283529160200191610231565b820191906000526020600020905b81548152906001019060200180831161021457829003601f168201915b505050505081565b600060019054906101000a900473ffffffffffffffffffffffffffffffffffffffff1681565b3373ffffffffffffffffffffffffffffffffffffffff16600060019054906101000a900473ffffffffffffffffffffffffffffffffffffffff1673ffffffffffffffffffffffffffffffffffffffff1614156102ba57600080fd5b6000600160009054906101000a900473ffffffffffffffffffffffffffffffffffffffff1690508073ffffffffffffffffffffffffffffffffffffffff166313e893a8336003546040518363ffffffff1660e01b8152600401808373ffffffffffffffffffffffffffffffffffffffff1673ffffffffffffffffffffffffffffffffffffffff1681526020018281526020019250505060206040518083038186803b15801561036857600080fd5b505afa15801561037c573d6000803e3d6000fd5b505050506040513d602081101561039257600080fd5b81019080805190602001909291905050506103ac57600080fd5b8073ffffffffffffffffffffffffffffffffffffffff166333f2f2e7600060019054906101000a900473ffffffffffffffffffffffffffffffffffffffff16336003546040518463ffffffff1660e01b8152600401808473ffffffffffffffffffffffffffffffffffffffff1673ffffffffffffffffffffffffffffffffffffffff1681526020018373ffffffffffffffffffffffffffffffffffffffff1673ffffffffffffffffffffffffffffffffffffffff1681526020018281526020019350505050600060405180830381600087803b15801561048b57600080fd5b505af115801561049f573d6000803e3d6000fd5b5050505050565b60035481565b600160009054906101000a900473ffffffffffffffffffffffffffffffffffffffff168156fea265627a7a723158200db71023ae40a327d611b9d3ea0edc47bd319554c17e060096d4e99ad433c32a64736f6c63430005100032a265627a7a723158208c1d6490ecff400ab3735274f39662a280f7c1fe918c23fb0e0f428a3e6d9ae564736f6c63430005100032a265627a7a723158205a5dfdc4463056eab4ca4a79872d8457c0ffe74428cd3aaf88356bb46f2e4bc264736f6c63430005100032",
  "source": "// SPDX-License-Identifier: MIT\npragma solidity >=0.4.22 <0.9.0;\n\nimport \"./Marketplace.sol\";\n\ncontract MarketplaceCreator {\n    address[] public marketplaces;\n\n    function createMarketplace(address paymentAddressA, int currentBalanceA, address paymentAddressB, int currentBalanceB) public {\n        address newMarketplace = address (\n            new Marketplace(\n                paymentAddressA,\n                currentBalanceA,\n                paymentAddressB,\n                currentBalanceB\n            )\n        );\n        marketplaces.push(newMarketplace);\n    }\n\n    function getDeployedMarketplaces() public view returns( address[] memory) { return marketplaces;} \n}",
  "sourcePath": "/projects/BC-Group-3/contracts/MarketplaceCreator.sol",
  "compiler": {
    "name": "solc",
    "version": "0.5.16+commit.9c3226ce.Emscripten.clang"
  },
  "schemaVersion": "3.4.0",
  "updatedAt": "2021-06-24T19:28:56.426Z",
  "devdoc": {
    "methods": {}
  },
  "userdoc": {
    "methods": {}
  }
}