{
  "contractName": "Ownable",
  "abi": [
    {
      "constant": true,
      "inputs": [],
      "name": "contentHash",
      "outputs": [
        {
          "internalType": "string",
          "name": "",
          "type": "string"
        }
      ],
      "payable": false,
      "stateMutability": "view",
      "type": "function"
    },
    {
      "constant": true,
      "inputs": [],
      "name": "forSale",
      "outputs": [
        {
          "internalType": "bool",
          "name": "",
          "type": "bool"
        }
      ],
      "payable": false,
      "stateMutability": "view",
      "type": "function"
    },
    {
      "constant": true,
      "inputs": [],
      "name": "marketplaceAddress",
      "outputs": [
        {
          "internalType": "address",
          "name": "",
          "type": "address"
        }
      ],
      "payable": false,
      "stateMutability": "view",
      "type": "function"
    },
    {
      "constant": true,
      "inputs": [],
      "name": "name",
      "outputs": [
        {
          "internalType": "string",
          "name": "",
          "type": "string"
        }
      ],
      "payable": false,
      "stateMutability": "view",
      "type": "function"
    },
    {
      "constant": true,
      "inputs": [],
      "name": "owner",
      "outputs": [
        {
          "internalType": "address",
          "name": "",
          "type": "address"
        }
      ],
      "payable": false,
      "stateMutability": "view",
      "type": "function"
    },
    {
      "constant": true,
      "inputs": [],
      "name": "price",
      "outputs": [
        {
          "internalType": "uint256",
          "name": "",
          "type": "uint256"
        }
      ],
      "payable": false,
      "stateMutability": "view",
      "type": "function"
    },
    {
      "constant": false,
      "inputs": [],
      "name": "transferOwnership",
      "outputs": [],
      "payable": false,
      "stateMutability": "nonpayable",
      "type": "function"
    },
    {
      "constant": false,
      "inputs": [
        {
          "internalType": "uint256",
          "name": "newPrice",
          "type": "uint256"
        }
      ],
      "name": "setPrice",
      "outputs": [],
      "payable": false,
      "stateMutability": "nonpayable",
      "type": "function"
    },
    {
      "constant": false,
      "inputs": [
        {
          "internalType": "uint256",
          "name": "_price",
          "type": "uint256"
        }
      ],
      "name": "declareForSale",
      "outputs": [],
      "payable": false,
      "stateMutability": "nonpayable",
      "type": "function"
    },
    {
      "constant": false,
      "inputs": [],
      "name": "buyOwnable",
      "outputs": [],
      "payable": false,
      "stateMutability": "nonpayable",
      "type": "function"
    },
    {
      "constant": false,
      "inputs": [],
      "name": "purchaseProduct",
      "outputs": [
        {
          "internalType": "bool",
          "name": "",
          "type": "bool"
        }
      ],
      "payable": true,
      "stateMutability": "payable",
      "type": "function"
    }
  ],
  "bytecode": "0x608060405234801561001057600080fd5b50610820806100206000396000f3fe60806040526004361061009c5760003560e01c8063646c2e3311610064578063646c2e33146101d4578063880ad0af146102645780638da5cb5b1461027b57806391b7f5ed146102d2578063a035b1fe1461030d578063daa17f49146103385761009c565b806306fdde03146100a15780632a304dc6146101315780633fd02423146101485780633fd626271461016a578063466ccac0146101a5575b600080fd5b3480156100ad57600080fd5b506100b661038f565b6040518080602001828103825283818151815260200191508051906020019080838360005b838110156100f65780820151818401526020810190506100db565b50505050905090810190601f1680156101235780820380516001836020036101000a031916815260200191505b509250505060405180910390f35b34801561013d57600080fd5b5061014661042d565b005b6101506105ac565b604051808215151515815260200191505060405180910390f35b34801561017657600080fd5b506101a36004803603602081101561018d57600080fd5b8101908080359060200190929190505050610620565b005b3480156101b157600080fd5b506101ba61069d565b604051808215151515815260200191505060405180910390f35b3480156101e057600080fd5b506101e96106b0565b6040518080602001828103825283818151815260200191508051906020019080838360005b8381101561022957808201518184015260208101905061020e565b50505050905090810190601f1680156102565780820380516001836020036101000a031916815260200191505b509250505060405180910390f35b34801561027057600080fd5b5061027961074e565b005b34801561028757600080fd5b50610290610790565b604051808273ffffffffffffffffffffffffffffffffffffffff1673ffffffffffffffffffffffffffffffffffffffff16815260200191505060405180910390f35b3480156102de57600080fd5b5061030b600480360360208110156102f557600080fd5b81019080803590602001909291905050506107b5565b005b34801561031957600080fd5b506103226107bf565b6040518082815260200191505060405180910390f35b34801561034457600080fd5b5061034d6107c5565b604051808273ffffffffffffffffffffffffffffffffffffffff1673ffffffffffffffffffffffffffffffffffffffff16815260200191505060405180910390f35b60028054600181600116156101000203166002900480601f0160208091040260200160405190810160405280929190818152602001828054600181600116156101000203166002900480156104255780601f106103fa57610100808354040283529160200191610425565b820191906000526020600020905b81548152906001019060200180831161040857829003601f168201915b505050505081565b6000809054906101000a900473ffffffffffffffffffffffffffffffffffffffff1673ffffffffffffffffffffffffffffffffffffffff163373ffffffffffffffffffffffffffffffffffffffff16141561048757600080fd5b600660009054906101000a900473ffffffffffffffffffffffffffffffffffffffff1673ffffffffffffffffffffffffffffffffffffffff16634d7b9bd5336004546040518363ffffffff1660e01b8152600401808373ffffffffffffffffffffffffffffffffffffffff1673ffffffffffffffffffffffffffffffffffffffff1681526020018281526020019250505060206040518083038186803b15801561053057600080fd5b505afa158015610544573d6000803e3d6000fd5b505050506040513d602081101561055a57600080fd5b810190808051906020019092919050505061057457600080fd5b61057c6105ac565b5061058561074e565b6000600360006101000a81548160ff0219169083151502179055506105aa60006107b5565b565b60006004543410156105bd57600080fd5b600454341115610619576000600454340390503373ffffffffffffffffffffffffffffffffffffffff166108fc829081150290604051600060405180830381858888f19350505050158015610616573d6000803e3d6000fd5b50505b6001905090565b6000809054906101000a900473ffffffffffffffffffffffffffffffffffffffff1673ffffffffffffffffffffffffffffffffffffffff163373ffffffffffffffffffffffffffffffffffffffff16141561069a5761067e816107b5565b6001600360006101000a81548160ff0219169083151502179055505b50565b600360009054906101000a900460ff1681565b60018054600181600116156101000203166002900480601f0160208091040260200160405190810160405280929190818152602001828054600181600116156101000203166002900480156107465780601f1061071b57610100808354040283529160200191610746565b820191906000526020600020905b81548152906001019060200180831161072957829003601f168201915b505050505081565b336000806101000a81548173ffffffffffffffffffffffffffffffffffffffff021916908373ffffffffffffffffffffffffffffffffffffffff160217905550565b6000809054906101000a900473ffffffffffffffffffffffffffffffffffffffff1681565b8060048190555050565b60045481565b600560009054906101000a900473ffffffffffffffffffffffffffffffffffffffff168156fea265627a7a723158208d852dd8d6613c4b87a316016e4ac55d667d6d10892c5a06ea0df63087557ffd64736f6c63430005100032",
  "source": "// SPDX-License-Identifier: MIT\npragma solidity >=0.4.22 <0.9.0;\n\nimport \"./Marketplace.sol\";\n\ncontract Ownable {\n  \n  address public owner;\n  string public contentHash;\n  string public name;\n  bool public forSale;\n  uint public price;\n  address public marketplaceAddress;\n  Marketplace marketplace;\n\n  modifier onlyOwner() {\n    if (msg.sender == owner)\n      _;\n  }\n\n  function transferOwnership() public {\n    owner = msg.sender;\n  }\n\n  function setPrice(uint newPrice) public {\n    price = newPrice;\n  }\n\n  //declares ownable item for sale\n  function declareForSale(uint _price) public {\n      if (msg.sender == owner){\n          setPrice(_price);\n          forSale = true;\n      }\n  }\n\n  //Buyer buys ownable\n  function buyOwnable() public {\n      if(msg.sender == owner){\n          revert();\n      } else {\n          if (!marketplace.checkBalance(msg.sender, price)){\n              revert();  \n          } else {\n              purchaseProduct();\n              transferOwnership();\n              forSale = false;\n              setPrice(0);\n          }\n      }\n  }\n\n  function purchaseProduct() payable public returns (bool) {\n\t  require(msg.value >= price);\n\n\t\t// If amount sent is too large, refund the difference\n\t\tif (msg.value > price) {\n\t\t\tuint refund = msg.value - price;\n\t\t\tmsg.sender.transfer(refund);\n\t\t}\n\t\treturn true;\n\t}\n}",
  "sourcePath": "/projects/BC-Group-3/contracts/Ownable.sol",
  "compiler": {
    "name": "solc",
    "version": "0.5.16+commit.9c3226ce.Emscripten.clang"
  },
  "schemaVersion": "3.4.0",
  "updatedAt": "2021-06-30T17:55:51.076Z",
  "devdoc": {
    "methods": {}
  },
  "userdoc": {
    "methods": {}
  }
}