{
  "contractName": "Ownable",
  "abi": [
    {
      "constant": true,
      "inputs": [],
      "name": "contentHash",
      "outputs": [
        {
          "internalType": "string",
          "name": "",
          "type": "string"
        }
      ],
      "payable": false,
      "stateMutability": "view",
      "type": "function"
    },
    {
      "constant": true,
      "inputs": [],
      "name": "forSale",
      "outputs": [
        {
          "internalType": "bool",
          "name": "",
          "type": "bool"
        }
      ],
      "payable": false,
      "stateMutability": "view",
      "type": "function"
    },
    {
      "constant": true,
      "inputs": [],
      "name": "marketplaceAddress",
      "outputs": [
        {
          "internalType": "address",
          "name": "",
          "type": "address"
        }
      ],
      "payable": false,
      "stateMutability": "view",
      "type": "function"
    },
    {
      "constant": true,
      "inputs": [],
      "name": "name",
      "outputs": [
        {
          "internalType": "string",
          "name": "",
          "type": "string"
        }
      ],
      "payable": false,
      "stateMutability": "view",
      "type": "function"
    },
    {
      "constant": true,
      "inputs": [],
      "name": "owner",
      "outputs": [
        {
          "internalType": "address",
          "name": "",
          "type": "address"
        }
      ],
      "payable": false,
      "stateMutability": "view",
      "type": "function"
    },
    {
      "constant": true,
      "inputs": [],
      "name": "price",
      "outputs": [
        {
          "internalType": "uint256",
          "name": "",
          "type": "uint256"
        }
      ],
      "payable": false,
      "stateMutability": "view",
      "type": "function"
    },
    {
      "constant": false,
      "inputs": [
        {
          "internalType": "uint256",
          "name": "newPrice",
          "type": "uint256"
        }
      ],
      "name": "setPrice",
      "outputs": [],
      "payable": false,
      "stateMutability": "nonpayable",
      "type": "function"
    },
    {
      "constant": false,
      "inputs": [
        {
          "internalType": "uint256",
          "name": "_price",
          "type": "uint256"
        }
      ],
      "name": "declareForSale",
      "outputs": [],
      "payable": false,
      "stateMutability": "nonpayable",
      "type": "function"
    },
    {
      "constant": false,
      "inputs": [],
      "name": "buyOwnable",
      "outputs": [
        {
          "internalType": "bool",
          "name": "",
          "type": "bool"
        }
      ],
      "payable": true,
      "stateMutability": "payable",
      "type": "function"
    }
  ],
  "bytecode": "0x608060405234801561001057600080fd5b506107ea806100206000396000f3fe6080604052600436106100865760003560e01c8063646c2e3311610059578063646c2e33146101a75780638da5cb5b1461023757806391b7f5ed1461028e578063a035b1fe146102c9578063daa17f49146102f457610086565b806306fdde031461008b5780632a304dc61461011b5780633fd626271461013d578063466ccac014610178575b600080fd5b34801561009757600080fd5b506100a061034b565b6040518080602001828103825283818151815260200191508051906020019080838360005b838110156100e05780820151818401526020810190506100c5565b50505050905090810190601f16801561010d5780820380516001836020036101000a031916815260200191505b509250505060405180910390f35b6101236103e9565b604051808215151515815260200191505060405180910390f35b34801561014957600080fd5b506101766004803603602081101561016057600080fd5b81019080803590602001909291905050506105ea565b005b34801561018457600080fd5b5061018d610667565b604051808215151515815260200191505060405180910390f35b3480156101b357600080fd5b506101bc61067a565b6040518080602001828103825283818151815260200191508051906020019080838360005b838110156101fc5780820151818401526020810190506101e1565b50505050905090810190601f1680156102295780820380516001836020036101000a031916815260200191505b509250505060405180910390f35b34801561024357600080fd5b5061024c610718565b604051808273ffffffffffffffffffffffffffffffffffffffff1673ffffffffffffffffffffffffffffffffffffffff16815260200191505060405180910390f35b34801561029a57600080fd5b506102c7600480360360208110156102b157600080fd5b810190808035906020019092919050505061073d565b005b3480156102d557600080fd5b506102de610747565b6040518082815260200191505060405180910390f35b34801561030057600080fd5b5061030961074d565b604051808273ffffffffffffffffffffffffffffffffffffffff1673ffffffffffffffffffffffffffffffffffffffff16815260200191505060405180910390f35b60028054600181600116156101000203166002900480601f0160208091040260200160405190810160405280929190818152602001828054600181600116156101000203166002900480156103e15780601f106103b6576101008083540402835291602001916103e1565b820191906000526020600020905b8154815290600101906020018083116103c457829003601f168201915b505050505081565b60008060009054906101000a900473ffffffffffffffffffffffffffffffffffffffff1673ffffffffffffffffffffffffffffffffffffffff163373ffffffffffffffffffffffffffffffffffffffff16141561044557600080fd5b600360009054906101000a900460ff1661045e57600080fd5b600660009054906101000a900473ffffffffffffffffffffffffffffffffffffffff1673ffffffffffffffffffffffffffffffffffffffff16634d7b9bd5336004546040518363ffffffff1660e01b8152600401808373ffffffffffffffffffffffffffffffffffffffff1673ffffffffffffffffffffffffffffffffffffffff1681526020018281526020019250505060206040518083038186803b15801561050757600080fd5b505afa15801561051b573d6000803e3d6000fd5b505050506040513d602081101561053157600080fd5b810190808051906020019092919050505061054b57600080fd5b6000600360006101000a81548160ff02191690831515021790555060045434101561057557600080fd5b6004543411156105d1576000600454340390503373ffffffffffffffffffffffffffffffffffffffff166108fc829081150290604051600060405180830381858888f193505050501580156105ce573d6000803e3d6000fd5b50505b6105d9610773565b6105e3600061073d565b6001905090565b6000809054906101000a900473ffffffffffffffffffffffffffffffffffffffff1673ffffffffffffffffffffffffffffffffffffffff163373ffffffffffffffffffffffffffffffffffffffff161415610664576106488161073d565b6001600360006101000a81548160ff0219169083151502179055505b50565b600360009054906101000a900460ff1681565b60018054600181600116156101000203166002900480601f0160208091040260200160405190810160405280929190818152602001828054600181600116156101000203166002900480156107105780601f106106e557610100808354040283529160200191610710565b820191906000526020600020905b8154815290600101906020018083116106f357829003601f168201915b505050505081565b6000809054906101000a900473ffffffffffffffffffffffffffffffffffffffff1681565b8060048190555050565b60045481565b600560009054906101000a900473ffffffffffffffffffffffffffffffffffffffff1681565b336000806101000a81548173ffffffffffffffffffffffffffffffffffffffff021916908373ffffffffffffffffffffffffffffffffffffffff16021790555056fea265627a7a72315820c2d6717841e2d2e0dca03b2b6d282e7e3970ca2981bd9f9314fcab7fdb30805164736f6c63430005100032",
  "source": "// SPDX-License-Identifier: MIT\npragma solidity >=0.4.22 <0.9.0;\n\nimport \"./Marketplace.sol\";\n\ncontract Ownable {\n  \n  address public owner;\n  string public contentHash;\n  string public name;\n  bool public forSale;\n  uint public price;\n  address public marketplaceAddress;\n  Marketplace marketplace;\n\n  modifier onlyOwner() {\n    if (msg.sender == owner)\n      _;\n  }\n\n  function transferOwnership() private {\n    owner = msg.sender;\n  }\n\n  function setPrice(uint newPrice) public {\n    price = newPrice;\n  }\n\n  //declares ownable item for sale\n  function declareForSale(uint _price) public {\n      if (msg.sender == owner){\n          setPrice(_price);\n          forSale = true;\n      }\n  }\n\n  //Buyer buys ownable\n  function buyOwnable() payable public returns (bool){\n      if(msg.sender == owner){\n          revert();\n      } else if(!forSale) {\n          revert();\n      } else {\n          if (!marketplace.checkBalance(msg.sender, price)){\n              revert();  \n          } else {\n              forSale = false;\n              require(msg.value >= price);\n              // If amount sent is too large, refund the difference\n              if (msg.value > price) {\n                \tuint refund = msg.value - price;\n                \tmsg.sender.transfer(refund);\n              }\n\t\t          transferOwnership();\n              setPrice(0);\n              return true;\n          }\n      }\n      return false;\n  }\n}",
  "sourcePath": "/projects/BC-Group-3/contracts/Ownable.sol",
  "compiler": {
    "name": "solc",
    "version": "0.5.16+commit.9c3226ce.Emscripten.clang"
  },
  "schemaVersion": "3.4.0",
  "updatedAt": "2021-07-01T09:13:40.815Z",
  "devdoc": {
    "methods": {}
  },
  "userdoc": {
    "methods": {}
  }
}